{
  "contractName": "Artwork",
  "abi": [
    {
      "inputs": [],
      "stateMutability": "nonpayable",
      "type": "constructor"
    },
    {
      "anonymous": false,
      "inputs": [
        {
          "indexed": true,
          "internalType": "address",
          "name": "owner",
          "type": "address"
        },
        {
          "indexed": true,
          "internalType": "address",
          "name": "approved",
          "type": "address"
        },
        {
          "indexed": true,
          "internalType": "uint256",
          "name": "tokenId",
          "type": "uint256"
        }
      ],
      "name": "Approval",
      "type": "event"
    },
    {
      "anonymous": false,
      "inputs": [
        {
          "indexed": true,
          "internalType": "address",
          "name": "owner",
          "type": "address"
        },
        {
          "indexed": true,
          "internalType": "address",
          "name": "operator",
          "type": "address"
        },
        {
          "indexed": false,
          "internalType": "bool",
          "name": "approved",
          "type": "bool"
        }
      ],
      "name": "ApprovalForAll",
      "type": "event"
    },
    {
      "anonymous": false,
      "inputs": [
        {
          "indexed": true,
          "internalType": "address",
          "name": "from",
          "type": "address"
        },
        {
          "indexed": true,
          "internalType": "address",
          "name": "to",
          "type": "address"
        },
        {
          "indexed": true,
          "internalType": "uint256",
          "name": "tokenId",
          "type": "uint256"
        }
      ],
      "name": "Transfer",
      "type": "event"
    },
    {
      "inputs": [
        {
          "internalType": "address",
          "name": "to",
          "type": "address"
        },
        {
          "internalType": "uint256",
          "name": "tokenId",
          "type": "uint256"
        }
      ],
      "name": "approve",
      "outputs": [],
      "stateMutability": "nonpayable",
      "type": "function"
    },
    {
      "inputs": [
        {
          "internalType": "uint256",
          "name": "",
          "type": "uint256"
        }
      ],
      "name": "artworks",
      "outputs": [
        {
          "internalType": "string",
          "name": "",
          "type": "string"
        }
      ],
      "stateMutability": "view",
      "type": "function",
      "constant": true
    },
    {
      "inputs": [
        {
          "internalType": "address",
          "name": "owner",
          "type": "address"
        }
      ],
      "name": "balanceOf",
      "outputs": [
        {
          "internalType": "uint256",
          "name": "",
          "type": "uint256"
        }
      ],
      "stateMutability": "view",
      "type": "function",
      "constant": true
    },
    {
      "inputs": [
        {
          "internalType": "uint256",
          "name": "tokenId",
          "type": "uint256"
        }
      ],
      "name": "getApproved",
      "outputs": [
        {
          "internalType": "address",
          "name": "",
          "type": "address"
        }
      ],
      "stateMutability": "view",
      "type": "function",
      "constant": true
    },
    {
      "inputs": [
        {
          "internalType": "address",
          "name": "owner",
          "type": "address"
        },
        {
          "internalType": "address",
          "name": "operator",
          "type": "address"
        }
      ],
      "name": "isApprovedForAll",
      "outputs": [
        {
          "internalType": "bool",
          "name": "",
          "type": "bool"
        }
      ],
      "stateMutability": "view",
      "type": "function",
      "constant": true
    },
    {
      "inputs": [],
      "name": "name",
      "outputs": [
        {
          "internalType": "string",
          "name": "",
          "type": "string"
        }
      ],
      "stateMutability": "view",
      "type": "function",
      "constant": true
    },
    {
      "inputs": [
        {
          "internalType": "uint256",
          "name": "tokenId",
          "type": "uint256"
        }
      ],
      "name": "ownerOf",
      "outputs": [
        {
          "internalType": "address",
          "name": "",
          "type": "address"
        }
      ],
      "stateMutability": "view",
      "type": "function",
      "constant": true
    },
    {
      "inputs": [
        {
          "internalType": "address",
          "name": "from",
          "type": "address"
        },
        {
          "internalType": "address",
          "name": "to",
          "type": "address"
        },
        {
          "internalType": "uint256",
          "name": "tokenId",
          "type": "uint256"
        }
      ],
      "name": "safeTransferFrom",
      "outputs": [],
      "stateMutability": "nonpayable",
      "type": "function"
    },
    {
      "inputs": [
        {
          "internalType": "address",
          "name": "from",
          "type": "address"
        },
        {
          "internalType": "address",
          "name": "to",
          "type": "address"
        },
        {
          "internalType": "uint256",
          "name": "tokenId",
          "type": "uint256"
        },
        {
          "internalType": "bytes",
          "name": "_data",
          "type": "bytes"
        }
      ],
      "name": "safeTransferFrom",
      "outputs": [],
      "stateMutability": "nonpayable",
      "type": "function"
    },
    {
      "inputs": [
        {
          "internalType": "address",
          "name": "operator",
          "type": "address"
        },
        {
          "internalType": "bool",
          "name": "approved",
          "type": "bool"
        }
      ],
      "name": "setApprovalForAll",
      "outputs": [],
      "stateMutability": "nonpayable",
      "type": "function"
    },
    {
      "inputs": [
        {
          "internalType": "bytes4",
          "name": "interfaceId",
          "type": "bytes4"
        }
      ],
      "name": "supportsInterface",
      "outputs": [
        {
          "internalType": "bool",
          "name": "",
          "type": "bool"
        }
      ],
      "stateMutability": "view",
      "type": "function",
      "constant": true
    },
    {
      "inputs": [],
      "name": "symbol",
      "outputs": [
        {
          "internalType": "string",
          "name": "",
          "type": "string"
        }
      ],
      "stateMutability": "view",
      "type": "function",
      "constant": true
    },
    {
      "inputs": [
        {
          "internalType": "uint256",
          "name": "tokenId",
          "type": "uint256"
        }
      ],
      "name": "tokenURI",
      "outputs": [
        {
          "internalType": "string",
          "name": "",
          "type": "string"
        }
      ],
      "stateMutability": "view",
      "type": "function",
      "constant": true
    },
    {
      "inputs": [
        {
          "internalType": "address",
          "name": "from",
          "type": "address"
        },
        {
          "internalType": "address",
          "name": "to",
          "type": "address"
        },
        {
          "internalType": "uint256",
          "name": "tokenId",
          "type": "uint256"
        }
      ],
      "name": "transferFrom",
      "outputs": [],
      "stateMutability": "nonpayable",
      "type": "function"
    },
    {
      "inputs": [
        {
          "internalType": "string",
          "name": "_artwork",
          "type": "string"
        }
      ],
      "name": "mint",
      "outputs": [],
      "stateMutability": "nonpayable",
      "type": "function"
    }
  ],
  "bytecode": "0x60806040523480156200001157600080fd5b5060405180604001604052806007815260200166417274776f726b60c81b81525060405180604001604052806007815260200166415254574f524b60c81b81525081600090805190602001906200006a92919062000089565b5080516200008090600190602084019062000089565b5050506200016c565b82805462000097906200012f565b90600052602060002090601f016020900481019282620000bb576000855562000106565b82601f10620000d657805160ff191683800117855562000106565b8280016001018555821562000106579182015b8281111562000106578251825591602001919060010190620000e9565b506200011492915062000118565b5090565b5b8082111562000114576000815560010162000119565b6002810460018216806200014457607f821691505b602082108114156200016657634e487b7160e01b600052602260045260246000fd5b50919050565b611894806200017c6000396000f3fe608060405234801561001057600080fd5b50600436106100f55760003560e01c80636352211e11610097578063b88d4fde11610066578063b88d4fde146101f4578063c87b56dd14610207578063d85d3d271461021a578063e985e9c51461022d576100f5565b80636352211e146101a657806370a08231146101b957806395d89b41146101d9578063a22cb465146101e1576100f5565b8063095ea7b3116100d3578063095ea7b31461015857806323b872dd1461016d57806342842e0e146101805780634b60267314610193576100f5565b806301ffc9a7146100fa57806306fdde0314610123578063081812fc14610138575b600080fd5b61010d610108366004611104565b610240565b60405161011a9190611261565b60405180910390f35b61012b6102ba565b60405161011a919061126c565b61014b610146366004611182565b61034c565b60405161011a9190611211565b61016b6101663660046110db565b610398565b005b61016b61017b366004610fed565b610430565b61016b61018e366004610fed565b610468565b61012b6101a1366004611182565b610483565b61014b6101b4366004611182565b61052f565b6101cc6101c7366004610fa1565b610564565b60405161011a9190611721565b61012b6105a8565b61016b6101ef3660046110a1565b6105b7565b61016b610202366004611028565b610685565b61012b610215366004611182565b6106c4565b61016b61022836600461113c565b610747565b61010d61023b366004610fbb565b61080c565b60006001600160e01b031982167f80ac58cd0000000000000000000000000000000000000000000000000000000014806102a357506001600160e01b031982167f5b5e139f00000000000000000000000000000000000000000000000000000000145b806102b257506102b28261083a565b90505b919050565b6060600080546102c990611799565b80601f01602080910402602001604051908101604052809291908181526020018280546102f590611799565b80156103425780601f1061031757610100808354040283529160200191610342565b820191906000526020600020905b81548152906001019060200180831161032557829003601f168201915b5050505050905090565b60006103578261086c565b61037c5760405162461bcd60e51b815260040161037390611550565b60405180910390fd5b506000908152600460205260409020546001600160a01b031690565b60006103a38261052f565b9050806001600160a01b0316836001600160a01b031614156103d75760405162461bcd60e51b815260040161037390611667565b806001600160a01b03166103e9610889565b6001600160a01b0316148061040557506104058161023b610889565b6104215760405162461bcd60e51b815260040161037390611404565b61042b838361088d565b505050565b61044161043b610889565b82610908565b61045d5760405162461bcd60e51b8152600401610373906116c4565b61042b83838361098d565b61042b83838360405180602001604052806000815250610685565b6006818154811061049357600080fd5b9060005260206000200160009150905080546104ae90611799565b80601f01602080910402602001604051908101604052809291908181526020018280546104da90611799565b80156105275780601f106104fc57610100808354040283529160200191610527565b820191906000526020600020905b81548152906001019060200180831161050a57829003601f168201915b505050505081565b6000818152600260205260408120546001600160a01b0316806102b25760405162461bcd60e51b8152600401610373906114be565b60006001600160a01b03821661058c5760405162461bcd60e51b815260040161037390611461565b506001600160a01b031660009081526003602052604090205490565b6060600180546102c990611799565b6105bf610889565b6001600160a01b0316826001600160a01b031614156105f05760405162461bcd60e51b815260040161037390611370565b80600560006105fd610889565b6001600160a01b03908116825260208083019390935260409182016000908120918716808252919093529120805460ff191692151592909217909155610641610889565b6001600160a01b03167f17307eab39ab6107e8899845ad3d59bd9653f200f220920489ca2b5937696c31836040516106799190611261565b60405180910390a35050565b610696610690610889565b83610908565b6106b25760405162461bcd60e51b8152600401610373906116c4565b6106be84848484610ac7565b50505050565b60606106cf8261086c565b6106eb5760405162461bcd60e51b81526004016103739061160a565b60006106f5610afa565b905060008151116107155760405180602001604052806000815250610740565b8061071f84610b0c565b6040516020016107309291906111e2565b6040516020818303038152906040525b9392505050565b60078160405161075791906111c6565b9081526040519081900360200190205460ff161561077457600080fd5b6006805460018101825560009190915281516107b7917ff652222313e28459528d920b65115c16c04f3efc82aaedc97be59f3f377c0d3f01906020840190610e81565b506006546000906107ca90600190611756565b90506107d63382610c5b565b60016007836040516107e891906111c6565b908152604051908190036020019020805491151560ff199092169190911790555050565b6001600160a01b03918216600090815260056020908152604080832093909416825291909152205460ff1690565b6001600160e01b031981167f01ffc9a70000000000000000000000000000000000000000000000000000000014919050565b6000908152600260205260409020546001600160a01b0316151590565b3390565b6000818152600460205260409020805473ffffffffffffffffffffffffffffffffffffffff19166001600160a01b03841690811790915581906108cf8261052f565b6001600160a01b03167f8c5be1e5ebec7d5bd14f71427d1e84f3dd0314c0f7b2291e5b200ac8c7c3b92560405160405180910390a45050565b60006109138261086c565b61092f5760405162461bcd60e51b8152600401610373906113a7565b600061093a8361052f565b9050806001600160a01b0316846001600160a01b031614806109755750836001600160a01b031661096a8461034c565b6001600160a01b0316145b806109855750610985818561080c565b949350505050565b826001600160a01b03166109a08261052f565b6001600160a01b0316146109c65760405162461bcd60e51b8152600401610373906115ad565b6001600160a01b0382166109ec5760405162461bcd60e51b815260040161037390611313565b6109f783838361042b565b610a0260008261088d565b6001600160a01b0383166000908152600360205260408120805460019290610a2b908490611756565b90915550506001600160a01b0382166000908152600360205260408120805460019290610a5990849061172a565b9091555050600081815260026020526040808220805473ffffffffffffffffffffffffffffffffffffffff19166001600160a01b0386811691821790925591518493918716917fddf252ad1be2c89b69c2b068fc378daa952ba7f163c4a11628f55a4df523b3ef91a4505050565b610ad284848461098d565b610ade84848484610d47565b6106be5760405162461bcd60e51b81526004016103739061127f565b60408051602081019091526000815290565b606081610b4d575060408051808201909152600181527f300000000000000000000000000000000000000000000000000000000000000060208201526102b5565b8160005b8115610b775780610b61816117d4565b9150610b709050600a83611742565b9150610b51565b60008167ffffffffffffffff811115610ba057634e487b7160e01b600052604160045260246000fd5b6040519080825280601f01601f191660200182016040528015610bca576020820181803683370190505b5090505b841561098557610bdf600183611756565b9150610bec600a866117ef565b610bf790603061172a565b60f81b818381518110610c1a57634e487b7160e01b600052603260045260246000fd5b60200101907effffffffffffffffffffffffffffffffffffffffffffffffffffffffffffff1916908160001a905350610c54600a86611742565b9450610bce565b6001600160a01b038216610c815760405162461bcd60e51b81526004016103739061151b565b610c8a8161086c565b15610ca75760405162461bcd60e51b8152600401610373906112dc565b610cb36000838361042b565b6001600160a01b0382166000908152600360205260408120805460019290610cdc90849061172a565b9091555050600081815260026020526040808220805473ffffffffffffffffffffffffffffffffffffffff19166001600160a01b03861690811790915590518392907fddf252ad1be2c89b69c2b068fc378daa952ba7f163c4a11628f55a4df523b3ef908290a45050565b6000610d5b846001600160a01b0316610e7b565b15610e7057836001600160a01b031663150b7a02610d77610889565b8786866040518563ffffffff1660e01b8152600401610d999493929190611225565b602060405180830381600087803b158015610db357600080fd5b505af1925050508015610de3575060408051601f3d908101601f19168201909252610de091810190611120565b60015b610e3d573d808015610e11576040519150601f19603f3d011682016040523d82523d6000602084013e610e16565b606091505b508051610e355760405162461bcd60e51b81526004016103739061127f565b805181602001fd5b6001600160e01b0319167f150b7a0200000000000000000000000000000000000000000000000000000000149050610985565b506001949350505050565b3b151590565b828054610e8d90611799565b90600052602060002090601f016020900481019282610eaf5760008555610ef5565b82601f10610ec857805160ff1916838001178555610ef5565b82800160010185558215610ef5579182015b82811115610ef5578251825591602001919060010190610eda565b50610f01929150610f05565b5090565b5b80821115610f015760008155600101610f06565b600067ffffffffffffffff80841115610f3557610f3561182f565b604051601f8501601f191681016020018281118282101715610f5957610f5961182f565b604052848152915081838501861015610f7157600080fd5b8484602083013760006020868301015250509392505050565b80356001600160a01b03811681146102b557600080fd5b600060208284031215610fb2578081fd5b61074082610f8a565b60008060408385031215610fcd578081fd5b610fd683610f8a565b9150610fe460208401610f8a565b90509250929050565b600080600060608486031215611001578081fd5b61100a84610f8a565b925061101860208501610f8a565b9150604084013590509250925092565b6000806000806080858703121561103d578081fd5b61104685610f8a565b935061105460208601610f8a565b925060408501359150606085013567ffffffffffffffff811115611076578182fd5b8501601f81018713611086578182fd5b61109587823560208401610f1a565b91505092959194509250565b600080604083850312156110b3578182fd5b6110bc83610f8a565b9150602083013580151581146110d0578182fd5b809150509250929050565b600080604083850312156110ed578182fd5b6110f683610f8a565b946020939093013593505050565b600060208284031215611115578081fd5b813561074081611845565b600060208284031215611131578081fd5b815161074081611845565b60006020828403121561114d578081fd5b813567ffffffffffffffff811115611163578182fd5b8201601f81018413611173578182fd5b61098584823560208401610f1a565b600060208284031215611193578081fd5b5035919050565b600081518084526111b281602086016020860161176d565b601f01601f19169290920160200192915050565b600082516111d881846020870161176d565b9190910192915050565b600083516111f481846020880161176d565b83519083019061120881836020880161176d565b01949350505050565b6001600160a01b0391909116815260200190565b60006001600160a01b03808716835280861660208401525083604083015260806060830152611257608083018461119a565b9695505050505050565b901515815260200190565b600060208252610740602083018461119a565b60208082526032908201527f4552433732313a207472616e7366657220746f206e6f6e20455243373231526560408201527f63656976657220696d706c656d656e7465720000000000000000000000000000606082015260800190565b6020808252601c908201527f4552433732313a20746f6b656e20616c7265616479206d696e74656400000000604082015260600190565b60208082526024908201527f4552433732313a207472616e7366657220746f20746865207a65726f2061646460408201527f7265737300000000000000000000000000000000000000000000000000000000606082015260800190565b60208082526019908201527f4552433732313a20617070726f766520746f2063616c6c657200000000000000604082015260600190565b6020808252602c908201527f4552433732313a206f70657261746f7220717565727920666f72206e6f6e657860408201527f697374656e7420746f6b656e0000000000000000000000000000000000000000606082015260800190565b60208082526038908201527f4552433732313a20617070726f76652063616c6c6572206973206e6f74206f7760408201527f6e6572206e6f7220617070726f76656420666f7220616c6c0000000000000000606082015260800190565b6020808252602a908201527f4552433732313a2062616c616e636520717565727920666f7220746865207a6560408201527f726f206164647265737300000000000000000000000000000000000000000000606082015260800190565b60208082526029908201527f4552433732313a206f776e657220717565727920666f72206e6f6e657869737460408201527f656e7420746f6b656e0000000000000000000000000000000000000000000000606082015260800190565b6020808252818101527f4552433732313a206d696e7420746f20746865207a65726f2061646472657373604082015260600190565b6020808252602c908201527f4552433732313a20617070726f76656420717565727920666f72206e6f6e657860408201527f697374656e7420746f6b656e0000000000000000000000000000000000000000606082015260800190565b60208082526029908201527f4552433732313a207472616e73666572206f6620746f6b656e2074686174206960408201527f73206e6f74206f776e0000000000000000000000000000000000000000000000606082015260800190565b6020808252602f908201527f4552433732314d657461646174613a2055524920717565727920666f72206e6f60408201527f6e6578697374656e7420746f6b656e0000000000000000000000000000000000606082015260800190565b60208082526021908201527f4552433732313a20617070726f76616c20746f2063757272656e74206f776e6560408201527f7200000000000000000000000000000000000000000000000000000000000000606082015260800190565b60208082526031908201527f4552433732313a207472616e736665722063616c6c6572206973206e6f74206f60408201527f776e6572206e6f7220617070726f766564000000000000000000000000000000606082015260800190565b90815260200190565b6000821982111561173d5761173d611803565b500190565b60008261175157611751611819565b500490565b60008282101561176857611768611803565b500390565b60005b83811015611788578181015183820152602001611770565b838111156106be5750506000910152565b6002810460018216806117ad57607f821691505b602082108114156117ce57634e487b7160e01b600052602260045260246000fd5b50919050565b60006000198214156117e8576117e8611803565b5060010190565b6000826117fe576117fe611819565b500690565b634e487b7160e01b600052601160045260246000fd5b634e487b7160e01b600052601260045260246000fd5b634e487b7160e01b600052604160045260246000fd5b6001600160e01b03198116811461185b57600080fd5b5056fea26469706673582212204855c1d16dcef655467f5f9c715fdb6c2cd5a73c4ffbfde5b4f7993713a3dc0164736f6c63430008000033",
  "immutableReferences": {},
  "source": "// SPDX-License-Identifier: MIT\npragma solidity ^0.8.0;\n\nimport \"@openzeppelin/contracts/token/ERC721/ERC721.sol\";\n\n contract Artwork is ERC721 {\n  string[] public artworks;\n  mapping(string => bool) _artworkExists;\n\n  constructor() public ERC721(\"Artwork\", \"ARTWORK\") {\n  }\n  \n  function mint(string memory _artwork) public {\n    require(!_artworkExists[_artwork]); \n    artworks.push(_artwork);\n    uint _id = artworks.length - 1; //id del token, representado por la ltima posicin del arreglo artworks (string de nombres)\n    _mint(msg.sender, _id); //crea el token con el address del sender (quien deploya) y con el id del token\n    _artworkExists[_artwork] = true; //vincula a la variable _artworkExists con _artwork (string con boolean)\n  }\n}\n",
  "sourcePath": "/home/pauladayn/e-art/front/src/contracts/Artwork.sol",
  "compiler": {
    "name": "solc",
    "version": "0.8.0+commit.c7dfd78e.Emscripten.clang"
  },
  "schemaVersion": "3.3.4",
  "updatedAt": "2021-04-13T17:27:00.815Z",
  "networkType": "ethereum",
  "devdoc": {
    "kind": "dev",
    "methods": {
      "approve(address,uint256)": {
        "details": "See {IERC721-approve}."
      },
      "balanceOf(address)": {
        "details": "See {IERC721-balanceOf}."
      },
      "getApproved(uint256)": {
        "details": "See {IERC721-getApproved}."
      },
      "isApprovedForAll(address,address)": {
        "details": "See {IERC721-isApprovedForAll}."
      },
      "name()": {
        "details": "See {IERC721Metadata-name}."
      },
      "ownerOf(uint256)": {
        "details": "See {IERC721-ownerOf}."
      },
      "safeTransferFrom(address,address,uint256)": {
        "details": "See {IERC721-safeTransferFrom}."
      },
      "safeTransferFrom(address,address,uint256,bytes)": {
        "details": "See {IERC721-safeTransferFrom}."
      },
      "setApprovalForAll(address,bool)": {
        "details": "See {IERC721-setApprovalForAll}."
      },
      "supportsInterface(bytes4)": {
        "details": "See {IERC165-supportsInterface}."
      },
      "symbol()": {
        "details": "See {IERC721Metadata-symbol}."
      },
      "tokenURI(uint256)": {
        "details": "See {IERC721Metadata-tokenURI}."
      },
      "transferFrom(address,address,uint256)": {
        "details": "See {IERC721-transferFrom}."
      }
    },
    "version": 1
  },
  "userdoc": {
    "kind": "user",
    "methods": {},
    "version": 1
  }
}