{
  "contractName": "AppealableArbitrator",
  "abi": [
    {
      "constant": true,
      "inputs": [
        {
          "name": "",
          "type": "uint256"
        }
      ],
      "name": "appealDisputeIDsToDisputeIDs",
      "outputs": [
        {
          "name": "",
          "type": "uint256"
        }
      ],
      "payable": false,
      "stateMutability": "view",
      "type": "function"
    },
    {
      "constant": true,
      "inputs": [],
      "name": "arbitratorExtraData",
      "outputs": [
        {
          "name": "",
          "type": "bytes"
        }
      ],
      "payable": false,
      "stateMutability": "view",
      "type": "function"
    },
    {
      "constant": false,
      "inputs": [
        {
          "name": "_disputeID",
          "type": "uint256"
        },
        {
          "name": "_ruling",
          "type": "uint256"
        }
      ],
      "name": "rule",
      "outputs": [],
      "payable": false,
      "stateMutability": "nonpayable",
      "type": "function"
    },
    {
      "constant": true,
      "inputs": [
        {
          "name": "",
          "type": "uint256"
        }
      ],
      "name": "appealDisputes",
      "outputs": [
        {
          "name": "rulingTime",
          "type": "uint256"
        },
        {
          "name": "arbitrator",
          "type": "address"
        },
        {
          "name": "appealDisputeID",
          "type": "uint256"
        }
      ],
      "payable": false,
      "stateMutability": "view",
      "type": "function"
    },
    {
      "constant": true,
      "inputs": [
        {
          "name": "",
          "type": "uint256"
        }
      ],
      "name": "disputes",
      "outputs": [
        {
          "name": "arbitrated",
          "type": "address"
        },
        {
          "name": "choices",
          "type": "uint256"
        },
        {
          "name": "fee",
          "type": "uint256"
        },
        {
          "name": "ruling",
          "type": "uint256"
        },
        {
          "name": "status",
          "type": "uint8"
        }
      ],
      "payable": false,
      "stateMutability": "view",
      "type": "function"
    },
    {
      "constant": true,
      "inputs": [],
      "name": "timeOut",
      "outputs": [
        {
          "name": "",
          "type": "uint256"
        }
      ],
      "payable": false,
      "stateMutability": "view",
      "type": "function"
    },
    {
      "constant": true,
      "inputs": [],
      "name": "arbitrator",
      "outputs": [
        {
          "name": "",
          "type": "address"
        }
      ],
      "payable": false,
      "stateMutability": "view",
      "type": "function"
    },
    {
      "constant": true,
      "inputs": [],
      "name": "owner",
      "outputs": [
        {
          "name": "",
          "type": "address"
        }
      ],
      "payable": false,
      "stateMutability": "view",
      "type": "function"
    },
    {
      "constant": true,
      "inputs": [
        {
          "name": "_disputeID",
          "type": "uint256"
        }
      ],
      "name": "appealPeriod",
      "outputs": [
        {
          "name": "start",
          "type": "uint256"
        },
        {
          "name": "end",
          "type": "uint256"
        }
      ],
      "payable": false,
      "stateMutability": "view",
      "type": "function"
    },
    {
      "constant": false,
      "inputs": [
        {
          "name": "_choices",
          "type": "uint256"
        },
        {
          "name": "_extraData",
          "type": "bytes"
        }
      ],
      "name": "createDispute",
      "outputs": [
        {
          "name": "disputeID",
          "type": "uint256"
        }
      ],
      "payable": true,
      "stateMutability": "payable",
      "type": "function"
    },
    {
      "constant": true,
      "inputs": [
        {
          "name": "_extraData",
          "type": "bytes"
        }
      ],
      "name": "arbitrationCost",
      "outputs": [
        {
          "name": "fee",
          "type": "uint256"
        }
      ],
      "payable": false,
      "stateMutability": "view",
      "type": "function"
    },
    {
      "constant": false,
      "inputs": [
        {
          "name": "_arbitrationPrice",
          "type": "uint256"
        }
      ],
      "name": "setArbitrationPrice",
      "outputs": [],
      "payable": false,
      "stateMutability": "nonpayable",
      "type": "function"
    },
    {
      "inputs": [
        {
          "name": "_arbitrationPrice",
          "type": "uint256"
        },
        {
          "name": "_arbitrator",
          "type": "address"
        },
        {
          "name": "_arbitratorExtraData",
          "type": "bytes"
        },
        {
          "name": "_timeOut",
          "type": "uint256"
        }
      ],
      "payable": false,
      "stateMutability": "nonpayable",
      "type": "constructor"
    },
    {
      "anonymous": false,
      "inputs": [
        {
          "indexed": true,
          "name": "_metaEvidenceID",
          "type": "uint256"
        },
        {
          "indexed": false,
          "name": "_evidence",
          "type": "string"
        }
      ],
      "name": "MetaEvidence",
      "type": "event"
    },
    {
      "anonymous": false,
      "inputs": [
        {
          "indexed": true,
          "name": "_arbitrator",
          "type": "address"
        },
        {
          "indexed": true,
          "name": "_disputeID",
          "type": "uint256"
        },
        {
          "indexed": false,
          "name": "_metaEvidenceID",
          "type": "uint256"
        },
        {
          "indexed": false,
          "name": "_evidenceGroupID",
          "type": "uint256"
        }
      ],
      "name": "Dispute",
      "type": "event"
    },
    {
      "anonymous": false,
      "inputs": [
        {
          "indexed": true,
          "name": "_arbitrator",
          "type": "address"
        },
        {
          "indexed": true,
          "name": "_evidenceGroupID",
          "type": "uint256"
        },
        {
          "indexed": true,
          "name": "_party",
          "type": "address"
        },
        {
          "indexed": false,
          "name": "_evidence",
          "type": "string"
        }
      ],
      "name": "Evidence",
      "type": "event"
    },
    {
      "anonymous": false,
      "inputs": [
        {
          "indexed": true,
          "name": "_arbitrator",
          "type": "address"
        },
        {
          "indexed": true,
          "name": "_disputeID",
          "type": "uint256"
        },
        {
          "indexed": false,
          "name": "_ruling",
          "type": "uint256"
        }
      ],
      "name": "Ruling",
      "type": "event"
    },
    {
      "anonymous": false,
      "inputs": [
        {
          "indexed": true,
          "name": "_disputeID",
          "type": "uint256"
        },
        {
          "indexed": true,
          "name": "_arbitrable",
          "type": "address"
        }
      ],
      "name": "DisputeCreation",
      "type": "event"
    },
    {
      "anonymous": false,
      "inputs": [
        {
          "indexed": true,
          "name": "_disputeID",
          "type": "uint256"
        },
        {
          "indexed": true,
          "name": "_arbitrable",
          "type": "address"
        }
      ],
      "name": "AppealPossible",
      "type": "event"
    },
    {
      "anonymous": false,
      "inputs": [
        {
          "indexed": true,
          "name": "_disputeID",
          "type": "uint256"
        },
        {
          "indexed": true,
          "name": "_arbitrable",
          "type": "address"
        }
      ],
      "name": "AppealDecision",
      "type": "event"
    },
    {
      "constant": false,
      "inputs": [
        {
          "name": "_arbitrator",
          "type": "address"
        }
      ],
      "name": "changeArbitrator",
      "outputs": [],
      "payable": false,
      "stateMutability": "nonpayable",
      "type": "function"
    },
    {
      "constant": false,
      "inputs": [
        {
          "name": "_timeOut",
          "type": "uint256"
        }
      ],
      "name": "changeTimeOut",
      "outputs": [],
      "payable": false,
      "stateMutability": "nonpayable",
      "type": "function"
    },
    {
      "constant": true,
      "inputs": [
        {
          "name": "_disputeID",
          "type": "uint256"
        }
      ],
      "name": "getAppealDisputeID",
      "outputs": [
        {
          "name": "disputeID",
          "type": "uint256"
        }
      ],
      "payable": false,
      "stateMutability": "view",
      "type": "function"
    },
    {
      "constant": false,
      "inputs": [
        {
          "name": "_disputeID",
          "type": "uint256"
        },
        {
          "name": "_extraData",
          "type": "bytes"
        }
      ],
      "name": "appeal",
      "outputs": [],
      "payable": true,
      "stateMutability": "payable",
      "type": "function"
    },
    {
      "constant": false,
      "inputs": [
        {
          "name": "_disputeID",
          "type": "uint256"
        },
        {
          "name": "_ruling",
          "type": "uint256"
        }
      ],
      "name": "giveRuling",
      "outputs": [],
      "payable": false,
      "stateMutability": "nonpayable",
      "type": "function"
    },
    {
      "constant": true,
      "inputs": [
        {
          "name": "_disputeID",
          "type": "uint256"
        },
        {
          "name": "_extraData",
          "type": "bytes"
        }
      ],
      "name": "appealCost",
      "outputs": [
        {
          "name": "cost",
          "type": "uint256"
        }
      ],
      "payable": false,
      "stateMutability": "view",
      "type": "function"
    },
    {
      "constant": true,
      "inputs": [
        {
          "name": "_disputeID",
          "type": "uint256"
        }
      ],
      "name": "disputeStatus",
      "outputs": [
        {
          "name": "status",
          "type": "uint8"
        }
      ],
      "payable": false,
      "stateMutability": "view",
      "type": "function"
    },
    {
      "constant": true,
      "inputs": [
        {
          "name": "_disputeID",
          "type": "uint256"
        }
      ],
      "name": "currentRuling",
      "outputs": [
        {
          "name": "ruling",
          "type": "uint256"
        }
      ],
      "payable": false,
      "stateMutability": "view",
      "type": "function"
    }
  ],
  "bytecode": "0x608060405260008054600160a060020a031916331790553480156200002357600080fd5b5060405162001dfb38038062001dfb8339810160409081528151602080840151928401516060850151600184905560038054600160a060020a031916600160a060020a03871617905594018051929490929091849184916200008b916004918401906200009b565b5050506005555062000140915050565b828054600181600116156101000203166002900490600052602060002090601f016020900481019282601f10620000de57805160ff19168380011785556200010e565b828001600101855582156200010e579182015b828111156200010e578251825591602001919060010190620000f1565b506200011c92915062000120565b5090565b6200013d91905b808211156200011c576000815560010162000127565b90565b611cab80620001506000396000f3006080604052600436106101105763ffffffff7c0100000000000000000000000000000000000000000000000000000000600035041662b5820581146101155780630c7ac7b61461013f57806310f169e8146101c957806319810619146102055780631c3db16d1461021d578063311a6c561461023557806337025d211461025257806349912f881461029d578063564a565d146102ee578063614d85e1146103725780636cc6cde1146103875780638da5cb5b146103c557806394e9cb96146103da578063afe15cfb146103f2578063c13517e114610423578063c97c4d5c14610474578063f23f16e61461048f578063f7434ea9146104ed578063fc548f0814610546578063ffb43c4814610574575b600080fd5b34801561012157600080fd5b5061012d60043561058c565b60408051918252519081900360200190f35b34801561014b57600080fd5b5061015461059e565b6040805160208082528351818301528351919283929083019185019080838360005b8381101561018e578181015183820152602001610176565b50505050905090810190601f1680156101bb5780820380516001836020036101000a031916815260200191505b509250505060405180910390f35b3480156101d557600080fd5b506101e160043561062c565b604051808260028111156101f157fe5b60ff16815260200191505060405180910390f35b34801561021157600080fd5b5061012d600435610743565b34801561022957600080fd5b5061012d6004356107fe565b34801561024157600080fd5b506102506004356024356108dc565b005b34801561025e57600080fd5b5061026a6004356109cd565b6040805193845273ffffffffffffffffffffffffffffffffffffffff909216602084015282820152519081900360600190f35b60408051602060046024803582810135601f8101859004850286018501909652858552610250958335953695604494919390910191908190840183828082843750949750610a049650505050505050565b3480156102fa57600080fd5b50610306600435610d75565b604051808673ffffffffffffffffffffffffffffffffffffffff1673ffffffffffffffffffffffffffffffffffffffff16815260200185815260200184815260200183815260200182600281111561035a57fe5b60ff1681526020019550505050505060405180910390f35b34801561037e57600080fd5b5061012d610dce565b34801561039357600080fd5b5061039c610dd4565b6040805173ffffffffffffffffffffffffffffffffffffffff9092168252519081900360200190f35b3480156103d157600080fd5b5061039c610df0565b3480156103e657600080fd5b50610250600435610e0c565b3480156103fe57600080fd5b5061040a600435610e97565b6040805192835260208301919091528051918290030190f35b60408051602060046024803582810135601f810185900485028601850190965285855261012d958335953695604494919390910191908190840183828082843750949750610e9f9650505050505050565b34801561048057600080fd5b50610250600435602435610fe3565b34801561049b57600080fd5b5060408051602060046024803582810135601f810185900485028601850190965285855261012d95833595369560449491939091019190819084018382808284375094975061142f9650505050505050565b3480156104f957600080fd5b506040805160206004803580820135601f810184900484028501840190955284845261012d9436949293602493928401919081908401838280828437509497506116b59650505050505050565b34801561055257600080fd5b5061025073ffffffffffffffffffffffffffffffffffffffff600435166116bc565b34801561058057600080fd5b5061025060043561177e565b60076020526000908152604090205481565b6004805460408051602060026001851615610100026000190190941693909304601f810184900484028201840190925281815292918301828280156106245780601f106105f957610100808354040283529160200191610624565b820191906000526020600020905b81548152906001019060200180831161060757829003601f168201915b505050505081565b60008181526006602052604081206001015473ffffffffffffffffffffffffffffffffffffffff1615610716576000828152600660209081526040808320600181015460029091015482517f10f169e80000000000000000000000000000000000000000000000000000000081526004810191909152915173ffffffffffffffffffffffffffffffffffffffff909116936310f169e893602480850194919392918390030190829087803b1580156106e357600080fd5b505af11580156106f7573d6000803e3d6000fd5b505050506040513d602081101561070d57600080fd5b5051905061073e565b600280548390811061072457fe5b600091825260209091206004600590920201015460ff1690505b919050565b60008181526006602052604081206001015473ffffffffffffffffffffffffffffffffffffffff16156107fa576000828152600660209081526040808320600181015460029091015482517f198106190000000000000000000000000000000000000000000000000000000081526004810191909152915173ffffffffffffffffffffffffffffffffffffffff90911693631981061993602480850194919392918390030190829087803b1580156106e357600080fd5b5090565b60008181526006602052604081206001015473ffffffffffffffffffffffffffffffffffffffff16156108b5576000828152600660209081526040808320600181015460029091015482517f1c3db16d0000000000000000000000000000000000000000000000000000000081526004810191909152915173ffffffffffffffffffffffffffffffffffffffff90911693631c3db16d93602480850194919392918390030190829087803b1580156106e357600080fd5b60028054839081106108c357fe5b9060005260206000209060050201600301549050919050565b60035473ffffffffffffffffffffffffffffffffffffffff16331461098857604080517f08c379a000000000000000000000000000000000000000000000000000000000815260206004820152602560248201527f43616e206f6e6c792062652063616c6c6564206279207468652061726269747260448201527f61746f722e000000000000000000000000000000000000000000000000000000606482015290519081900360840190fd5b604080518281529051839133917f394027a5fa6e098a1191094d1719d6929b9abc535fcc0c8f448d6a4e756222769181900360200190a36109c98282611809565b5050565b600660205260009081526040902080546001820154600290920154909173ffffffffffffffffffffffffffffffffffffffff169083565b8181610a10828261142f565b341015610aa457604080517f08c379a000000000000000000000000000000000000000000000000000000000815260206004820152602560248201527f4e6f7420656e6f7567682045544820746f20636f7665722061707065616c206360448201527f6f7374732e000000000000000000000000000000000000000000000000000000606482015290519081900360840190fd5b610aae84846118e9565b60008481526006602052604090206001015473ffffffffffffffffffffffffffffffffffffffff1615610beb576000848152600660209081526040808320600181015460029091015482517f49912f88000000000000000000000000000000000000000000000000000000008152600481018281526024820194855289516044830152895173ffffffffffffffffffffffffffffffffffffffff909416966349912f8896349694958c95939460640192918601918190849084905b83811015610b81578181015183820152602001610b69565b50505050905090810190601f168015610bae5780820380516001836020036101000a031916815260200191505b5093505050506000604051808303818588803b158015610bcd57600080fd5b505af1158015610be1573d6000803e3d6000fd5b5050505050610d6f565b600380546000868152600660205260409020600101805473ffffffffffffffffffffffffffffffffffffffff191673ffffffffffffffffffffffffffffffffffffffff928316179055905460028054919092169163c13517e19134919088908110610c5257fe5b906000526020600020906005020160010154866040518463ffffffff167c01000000000000000000000000000000000000000000000000000000000281526004018083815260200180602001828103825283818151815260200191508051906020019080838360005b83811015610cd3578181015183820152602001610cbb565b50505050905090810190601f168015610d005780820380516001836020036101000a031916815260200191505b5093505050506020604051808303818588803b158015610d1f57600080fd5b505af1158015610d33573d6000803e3d6000fd5b50505050506040513d6020811015610d4a57600080fd5b5051600085815260066020908152604080832060020184905592825260079052208490555b50505050565b6002805482908110610d8357fe5b60009182526020909120600590910201805460018201546002830154600384015460049094015473ffffffffffffffffffffffffffffffffffffffff90931694509092909160ff1685565b60055481565b60035473ffffffffffffffffffffffffffffffffffffffff1681565b60005473ffffffffffffffffffffffffffffffffffffffff1681565b60005473ffffffffffffffffffffffffffffffffffffffff163314610e9257604080517f08c379a000000000000000000000000000000000000000000000000000000000815260206004820181905260248201527f43616e206f6e6c792062652063616c6c656420627920746865206f776e65722e604482015290519081900360640190fd5b600555565b600080915091565b6000610eab83836119bc565b506001600260a0604051908101604052803373ffffffffffffffffffffffffffffffffffffffff1681526020018681526020013481526020016000815260200160006002811115610ef857fe5b90528154600180820180855560009485526020948590208451600590940201805473ffffffffffffffffffffffffffffffffffffffff191673ffffffffffffffffffffffffffffffffffffffff909416939093178355938301518282015560408301516002808401919091556060840151600384015560808401516004840180549193909260ff19909216918490811115610f8f57fe5b021790555050500390503373ffffffffffffffffffffffffffffffffffffffff16817f141dfc18aa6a56fc816f44f0e9e2f1ebc92b15ab167770e17db5b084c10ed99560405160405180910390a392915050565b600280805484908110610ff257fe5b600091825260209091206004600590920201015460ff16600281111561101457fe5b14156110a757604080517f08c379a000000000000000000000000000000000000000000000000000000000815260206004820152602a60248201527f54686520737065636966696564206469737075746520697320616c726561647960448201527f207265736f6c7665642e00000000000000000000000000000000000000000000606482015290519081900360840190fd5b60008281526006602052604090206001015473ffffffffffffffffffffffffffffffffffffffff161561119e5760008281526006602052604090206001015473ffffffffffffffffffffffffffffffffffffffff16331461118f57604080517f08c379a000000000000000000000000000000000000000000000000000000000815260206004820152603c60248201527f41707065616c6564206469737075746573206d7573742062652072756c65642060448201527f6279207468656972206261636b2075702061726269747261746f722e00000000606482015290519081900360840190fd5b6111998282611a63565b6109c9565b60005473ffffffffffffffffffffffffffffffffffffffff16331461124a57604080517f08c379a000000000000000000000000000000000000000000000000000000000815260206004820152603160248201527f4e6f742061707065616c6564206469737075746573206d75737420626520727560448201527f6c656420627920746865206f776e65722e000000000000000000000000000000606482015290519081900360840190fd5b6001600280548490811061125a57fe5b600091825260209091206004600590920201015460ff16600281111561127c57fe5b141561135857600554600083815260066020526040902054420311156112cb576112c6826002848154811015156112af57fe5b906000526020600020906005020160030154611a63565b611199565b604080517f08c379a000000000000000000000000000000000000000000000000000000000815260206004820152602160248201527f54696d65206f75742074696d6520686173206e6f74207061737365642079657460448201527f2e00000000000000000000000000000000000000000000000000000000000000606482015290519081900360840190fd5b8060028381548110151561136857fe5b906000526020600020906005020160030181905550600160028381548110151561138e57fe5b60009182526020909120600460059092020101805460ff191660018360028111156113b557fe5b0217905550600082815260066020526040902042905560028054839081106113d957fe5b6000918252602082206005909102015460405173ffffffffffffffffffffffffffffffffffffffff9091169184917fa5d41b970d849372be1da1481ffd78d162bfe57a7aa2fe4e5fb73481fa5ac24f9190a35050565b60008281526006602052604081206001015473ffffffffffffffffffffffffffffffffffffffff1615611582576000838152600660209081526040808320600181015460029091015482517ff23f16e6000000000000000000000000000000000000000000000000000000008152600481018281526024820194855288516044830152885173ffffffffffffffffffffffffffffffffffffffff9094169663f23f16e69693958a959294909360640192908601918190849084905b838110156115025781810151838201526020016114ea565b50505050905090810190601f16801561152f5780820380516001836020036101000a031916815260200191505b509350505050602060405180830381600087803b15801561154f57600080fd5b505af1158015611563573d6000803e3d6000fd5b505050506040513d602081101561157957600080fd5b505190506116af565b6001600280548590811061159257fe5b600091825260209091206004600590920201015460ff1660028111156115b457fe5b141561168c576003546040517ff7434ea900000000000000000000000000000000000000000000000000000000815260206004820181815285516024840152855173ffffffffffffffffffffffffffffffffffffffff9094169363f7434ea993879383926044909201919085019080838360005b83811015611640578181015183820152602001611628565b50505050905090810190601f16801561166d5780820380516001836020036101000a031916815260200191505b5092505050602060405180830381600087803b15801561154f57600080fd5b507f7fffffffffffffffffffffffffffffffffffffffffffffffffffffffffffffff5b92915050565b5060015490565b60005473ffffffffffffffffffffffffffffffffffffffff16331461174257604080517f08c379a000000000000000000000000000000000000000000000000000000000815260206004820181905260248201527f43616e206f6e6c792062652063616c6c656420627920746865206f776e65722e604482015290519081900360640190fd5b6003805473ffffffffffffffffffffffffffffffffffffffff191673ffffffffffffffffffffffffffffffffffffffff92909216919091179055565b60005473ffffffffffffffffffffffffffffffffffffffff16331461180457604080517f08c379a000000000000000000000000000000000000000000000000000000000815260206004820181905260248201527f43616e206f6e6c792062652063616c6c656420627920746865206f776e65722e604482015290519081900360640190fd5b600155565b6000828152600760209081526040808320548352600690915290206001015473ffffffffffffffffffffffffffffffffffffffff1615156118d057604080517f08c379a0000000000000000000000000000000000000000000000000000000008152602060048201526024808201527f5468652064697370757465206d7573742068617665206265656e20617070656160448201527f6c65642e00000000000000000000000000000000000000000000000000000000606482015290519081900360840190fd5b6000828152600760205260409020546109c99082610fe3565b81816118f5828261142f565b34101561198957604080517f08c379a000000000000000000000000000000000000000000000000000000000815260206004820152602560248201527f4e6f7420656e6f7567682045544820746f20636f7665722061707065616c206360448201527f6f7374732e000000000000000000000000000000000000000000000000000000606482015290519081900360840190fd5b604051339085907f9c9b64db9e130f48381bf697abf638e73117dbfbfd7a4484f2da3ba188f4187d90600090a350505050565b6000816119c8816116b5565b341015611a5c57604080517f08c379a000000000000000000000000000000000000000000000000000000000815260206004820152602a60248201527f4e6f7420656e6f7567682045544820746f20636f76657220617262697472617460448201527f696f6e20636f7374732e00000000000000000000000000000000000000000000606482015290519081900360840190fd5b5092915050565b6000600283815481101515611a7457fe5b9060005260206000209060050201905080600101548211151515611af957604080517f08c379a000000000000000000000000000000000000000000000000000000000815260206004820152600f60248201527f496e76616c69642072756c696e672e0000000000000000000000000000000000604482015290519081900360640190fd5b6002600482015460ff166002811115611b0e57fe5b1415611ba157604080517f08c379a000000000000000000000000000000000000000000000000000000000815260206004820152602760248201527f5468652064697370757465206d757374206e6f7420626520736f6c766564206160448201527f6c72656164792e00000000000000000000000000000000000000000000000000606482015290519081900360840190fd5b6003810182905560048101805460ff1916600290811790915581015460405133916108fc811502916000818181858888f19350505050158015611be8573d6000803e3d6000fd5b508054604080517f311a6c560000000000000000000000000000000000000000000000000000000081526004810186905260248101859052905173ffffffffffffffffffffffffffffffffffffffff9092169163311a6c569160448082019260009290919082900301818387803b158015611c6257600080fd5b505af1158015611c76573d6000803e3d6000fd5b505050505050505600a165627a7a72305820050a79288db862c476cdd4a56338a3315377ea9c419c41d82e647ffc8245c2ce0029",
  "source": "/**\n*  https://contributing.kleros.io/smart-contract-workflow\n*  @authors: [@epiqueras, @ferittuncer]\n*  @reviewers: []\n*  @auditors: []\n*  @bounties: []\n*  @deployments: []\n*  @tools: [MythX]\n*/\n\npragma solidity ^0.4.24;\n\nimport \"./CentralizedArbitrator.sol\";\n\n/**\n *  @title AppealableArbitrator\n *  @dev A centralized arbitrator that can be appealed.\n */\ncontract AppealableArbitrator is CentralizedArbitrator, Arbitrable {\n    /* Structs */\n\n    struct AppealDispute {\n        uint rulingTime;\n        Arbitrator arbitrator;\n        uint appealDisputeID;\n    }\n\n    /* Storage */\n\n    uint public timeOut;\n    mapping(uint => AppealDispute) public appealDisputes;\n    mapping(uint => uint) public appealDisputeIDsToDisputeIDs;\n\n    /* Constructor */\n\n    /** @dev Constructs the `AppealableArbitrator` contract.\n     *  @param _arbitrationPrice The amount to be paid for arbitration.\n     *  @param _arbitrator The back up arbitrator.\n     *  @param _arbitratorExtraData Not used by this contract.\n     *  @param _timeOut The time out for the appeal period.\n     */\n    constructor(\n        uint _arbitrationPrice,\n        Arbitrator _arbitrator,\n        bytes _arbitratorExtraData,\n        uint _timeOut\n    ) public CentralizedArbitrator(_arbitrationPrice) Arbitrable(_arbitrator, _arbitratorExtraData) {\n        timeOut = _timeOut;\n    }\n\n    /* External */\n\n    /** @dev Changes the back up arbitrator.\n     *  @param _arbitrator The new back up arbitrator.\n     */\n    function changeArbitrator(Arbitrator _arbitrator) external onlyOwner {\n        arbitrator = _arbitrator;\n    }\n\n    /** @dev Changes the time out.\n     *  @param _timeOut The new time out.\n     */\n    function changeTimeOut(uint _timeOut) external onlyOwner {\n        timeOut = _timeOut;\n    }\n\n    /* External Views */\n\n    /** @dev Gets the specified dispute's latest appeal ID.\n     *  @param _disputeID The ID of the dispute.\n     */\n    function getAppealDisputeID(uint _disputeID) external view returns(uint disputeID) {\n        if (appealDisputes[_disputeID].arbitrator != Arbitrator(address(0)))\n            disputeID = AppealableArbitrator(appealDisputes[_disputeID].arbitrator).getAppealDisputeID(appealDisputes[_disputeID].appealDisputeID);\n        else disputeID = _disputeID;\n    }\n\n    /* Public */\n\n    /** @dev Appeals a ruling.\n     *  @param _disputeID The ID of the dispute.\n     *  @param _extraData Additional info about the appeal.\n     */\n    function appeal(uint _disputeID, bytes _extraData) public payable requireAppealFee(_disputeID, _extraData) {\n        super.appeal(_disputeID, _extraData);\n        if (appealDisputes[_disputeID].arbitrator != Arbitrator(address(0)))\n            appealDisputes[_disputeID].arbitrator.appeal.value(msg.value)(appealDisputes[_disputeID].appealDisputeID, _extraData);\n        else {\n            appealDisputes[_disputeID].arbitrator = arbitrator;\n            appealDisputes[_disputeID].appealDisputeID = arbitrator.createDispute.value(msg.value)(disputes[_disputeID].choices, _extraData);\n            appealDisputeIDsToDisputeIDs[appealDisputes[_disputeID].appealDisputeID] = _disputeID;\n        }\n    }\n\n    /** @dev Gives a ruling.\n     *  @param _disputeID The ID of the dispute.\n     *  @param _ruling The ruling.\n     */\n    function giveRuling(uint _disputeID, uint _ruling) public {\n        require(disputes[_disputeID].status != DisputeStatus.Solved, \"The specified dispute is already resolved.\");\n        if (appealDisputes[_disputeID].arbitrator != Arbitrator(address(0))) {\n            require(Arbitrator(msg.sender) == appealDisputes[_disputeID].arbitrator, \"Appealed disputes must be ruled by their back up arbitrator.\");\n            super._giveRuling(_disputeID, _ruling);\n        } else {\n            require(msg.sender == owner, \"Not appealed disputes must be ruled by the owner.\");\n            if (disputes[_disputeID].status == DisputeStatus.Appealable) {\n                if (now - appealDisputes[_disputeID].rulingTime > timeOut)\n                    super._giveRuling(_disputeID, disputes[_disputeID].ruling);\n                else revert(\"Time out time has not passed yet.\");\n            } else {\n                disputes[_disputeID].ruling = _ruling;\n                disputes[_disputeID].status = DisputeStatus.Appealable;\n                appealDisputes[_disputeID].rulingTime = now;\n                emit AppealPossible(_disputeID, disputes[_disputeID].arbitrated);\n            }\n        }\n    }\n\n    /* Public Views */\n\n    /** @dev Gets the cost of appeal for the specified dispute.\n     *  @param _disputeID The ID of the dispute.\n     *  @param _extraData Additional info about the appeal.\n     *  @return The cost of the appeal.\n     */\n    function appealCost(uint _disputeID, bytes _extraData) public view returns(uint cost) {\n        if (appealDisputes[_disputeID].arbitrator != Arbitrator(address(0)))\n            cost = appealDisputes[_disputeID].arbitrator.appealCost(appealDisputes[_disputeID].appealDisputeID, _extraData);\n        else if (disputes[_disputeID].status == DisputeStatus.Appealable) cost = arbitrator.arbitrationCost(_extraData);\n        else cost = NOT_PAYABLE_VALUE;\n    }\n\n    /** @dev Gets the status of the specified dispute.\n     *  @param _disputeID The ID of the dispute.\n     *  @return The status.\n     */\n    function disputeStatus(uint _disputeID) public view returns(DisputeStatus status) {\n        if (appealDisputes[_disputeID].arbitrator != Arbitrator(address(0)))\n            status = appealDisputes[_disputeID].arbitrator.disputeStatus(appealDisputes[_disputeID].appealDisputeID);\n        else status = disputes[_disputeID].status;\n    }\n\n    /** @dev Return the ruling of a dispute.\n     *  @param _disputeID ID of the dispute to rule.\n     *  @return ruling The ruling which would or has been given.\n     */\n    function currentRuling(uint _disputeID) public view returns(uint ruling) {\n        if (appealDisputes[_disputeID].arbitrator != Arbitrator(address(0))) // Appealed.\n            ruling = appealDisputes[_disputeID].arbitrator.currentRuling(appealDisputes[_disputeID].appealDisputeID); // Retrieve ruling from the arbitrator whom the dispute is appealed to.\n        else ruling = disputes[_disputeID].ruling; //  Not appealed, basic case.\n    }\n\n    /* Internal */\n\n    /** @dev Executes the ruling of the specified dispute.\n     *  @param _disputeID The ID of the dispute.\n     *  @param _ruling The ruling.\n     */\n    function executeRuling(uint _disputeID, uint _ruling) internal {\n        require(\n            appealDisputes[appealDisputeIDsToDisputeIDs[_disputeID]].arbitrator != Arbitrator(address(0)),\n            \"The dispute must have been appealed.\"\n        );\n        giveRuling(appealDisputeIDsToDisputeIDs[_disputeID], _ruling);\n    }\n}\n",
  "sourcePath": "/Users/franespeche/kleros-eArt/e-art/front/src/kleros-interaction/contracts/standard/arbitration/AppealableArbitrator.sol",
  "compiler": {
    "name": "solc",
    "version": "0.4.25+commit.59dbf8f1.Emscripten.clang"
  },
  "schemaVersion": "3.3.4",
  "updatedAt": "2021-04-16T19:16:09.078Z",
  "devdoc": {
    "methods": {
      "appeal(uint256,bytes)": {
        "details": "Appeals a ruling.",
        "params": {
          "_disputeID": "The ID of the dispute.",
          "_extraData": "Additional info about the appeal."
        }
      },
      "appealCost(uint256,bytes)": {
        "details": "Gets the cost of appeal for the specified dispute.",
        "params": {
          "_disputeID": "The ID of the dispute.",
          "_extraData": "Additional info about the appeal."
        },
        "return": "The cost of the appeal."
      },
      "appealPeriod(uint256)": {
        "details": "Compute the start and end of the dispute's current or next appeal period, if possible.",
        "params": {
          "_disputeID": "ID of the dispute."
        },
        "return": "The start and end of the period."
      },
      "arbitrationCost(bytes)": {
        "details": "Cost of arbitration. Accessor to arbitrationPrice.",
        "params": {
          "_extraData": "Not used by this contract."
        },
        "return": "fee Amount to be paid."
      },
      "changeArbitrator(address)": {
        "details": "Changes the back up arbitrator.",
        "params": {
          "_arbitrator": "The new back up arbitrator."
        }
      },
      "changeTimeOut(uint256)": {
        "details": "Changes the time out.",
        "params": {
          "_timeOut": "The new time out."
        }
      },
      "createDispute(uint256,bytes)": {
        "details": "Create a dispute. Must be called by the arbitrable contract. Must be paid at least arbitrationCost().",
        "params": {
          "_choices": "Amount of choices the arbitrator can make in this dispute. When ruling ruling<=choices.",
          "_extraData": "Can be used to give additional info on the dispute to be created."
        },
        "return": "disputeID ID of the dispute created."
      },
      "currentRuling(uint256)": {
        "details": "Return the ruling of a dispute.",
        "params": {
          "_disputeID": "ID of the dispute to rule."
        },
        "return": "ruling The ruling which would or has been given."
      },
      "disputeStatus(uint256)": {
        "details": "Gets the status of the specified dispute.",
        "params": {
          "_disputeID": "The ID of the dispute."
        },
        "return": "The status."
      },
      "getAppealDisputeID(uint256)": {
        "details": "Gets the specified dispute's latest appeal ID.",
        "params": {
          "_disputeID": "The ID of the dispute."
        }
      },
      "giveRuling(uint256,uint256)": {
        "details": "Gives a ruling.",
        "params": {
          "_disputeID": "The ID of the dispute.",
          "_ruling": "The ruling."
        }
      },
      "rule(uint256,uint256)": {
        "details": "Give a ruling for a dispute. Must be called by the arbitrator. The purpose of this function is to ensure that the address calling it has the right to rule on the contract.",
        "params": {
          "_disputeID": "ID of the dispute in the Arbitrator contract.",
          "_ruling": "Ruling given by the arbitrator. Note that 0 is reserved for \"Not able/wanting to make a decision\"."
        }
      },
      "setArbitrationPrice(uint256)": {
        "details": "Set the arbitration price. Only callable by the owner.",
        "params": {
          "_arbitrationPrice": "Amount to be paid for arbitration."
        }
      }
    },
    "title": "AppealableArbitrator"
  },
  "userdoc": {
    "methods": {}
  }
}