{
  "contractName": "RealitioArbitratorProxy",
  "abi": [
    {
      "constant": true,
      "inputs": [],
      "name": "arbitratorExtraData",
      "outputs": [
        {
          "name": "",
          "type": "bytes"
        }
      ],
      "payable": false,
      "stateMutability": "view",
      "type": "function"
    },
    {
      "constant": true,
      "inputs": [],
      "name": "NUMBER_OF_CHOICES_FOR_ARBITRATOR",
      "outputs": [
        {
          "name": "",
          "type": "uint256"
        }
      ],
      "payable": false,
      "stateMutability": "view",
      "type": "function"
    },
    {
      "constant": true,
      "inputs": [
        {
          "name": "",
          "type": "bytes32"
        }
      ],
      "name": "questionIDToDisputer",
      "outputs": [
        {
          "name": "",
          "type": "address"
        }
      ],
      "payable": false,
      "stateMutability": "view",
      "type": "function"
    },
    {
      "constant": false,
      "inputs": [
        {
          "name": "_disputeID",
          "type": "uint256"
        },
        {
          "name": "_ruling",
          "type": "uint256"
        }
      ],
      "name": "rule",
      "outputs": [],
      "payable": false,
      "stateMutability": "nonpayable",
      "type": "function"
    },
    {
      "constant": true,
      "inputs": [],
      "name": "arbitrator",
      "outputs": [
        {
          "name": "",
          "type": "address"
        }
      ],
      "payable": false,
      "stateMutability": "view",
      "type": "function"
    },
    {
      "constant": true,
      "inputs": [
        {
          "name": "",
          "type": "bytes32"
        }
      ],
      "name": "questionIDToAnswer",
      "outputs": [
        {
          "name": "",
          "type": "bytes32"
        }
      ],
      "payable": false,
      "stateMutability": "view",
      "type": "function"
    },
    {
      "constant": true,
      "inputs": [],
      "name": "realitio",
      "outputs": [
        {
          "name": "",
          "type": "address"
        }
      ],
      "payable": false,
      "stateMutability": "view",
      "type": "function"
    },
    {
      "constant": true,
      "inputs": [
        {
          "name": "",
          "type": "bytes32"
        }
      ],
      "name": "questionIDToRuled",
      "outputs": [
        {
          "name": "",
          "type": "bool"
        }
      ],
      "payable": false,
      "stateMutability": "view",
      "type": "function"
    },
    {
      "constant": true,
      "inputs": [
        {
          "name": "",
          "type": "uint256"
        }
      ],
      "name": "disputeIDToQuestionID",
      "outputs": [
        {
          "name": "",
          "type": "bytes32"
        }
      ],
      "payable": false,
      "stateMutability": "view",
      "type": "function"
    },
    {
      "constant": true,
      "inputs": [],
      "name": "deployer",
      "outputs": [
        {
          "name": "",
          "type": "address"
        }
      ],
      "payable": false,
      "stateMutability": "view",
      "type": "function"
    },
    {
      "inputs": [
        {
          "name": "_arbitrator",
          "type": "address"
        },
        {
          "name": "_arbitratorExtraData",
          "type": "bytes"
        },
        {
          "name": "_realitio",
          "type": "address"
        }
      ],
      "payable": false,
      "stateMutability": "nonpayable",
      "type": "constructor"
    },
    {
      "anonymous": false,
      "inputs": [
        {
          "indexed": true,
          "name": "_disputeID",
          "type": "uint256"
        },
        {
          "indexed": false,
          "name": "_questionID",
          "type": "bytes32"
        }
      ],
      "name": "DisputeIDToQuestionID",
      "type": "event"
    },
    {
      "anonymous": false,
      "inputs": [
        {
          "indexed": true,
          "name": "_metaEvidenceID",
          "type": "uint256"
        },
        {
          "indexed": false,
          "name": "_evidence",
          "type": "string"
        }
      ],
      "name": "MetaEvidence",
      "type": "event"
    },
    {
      "anonymous": false,
      "inputs": [
        {
          "indexed": true,
          "name": "_arbitrator",
          "type": "address"
        },
        {
          "indexed": true,
          "name": "_disputeID",
          "type": "uint256"
        },
        {
          "indexed": false,
          "name": "_metaEvidenceID",
          "type": "uint256"
        },
        {
          "indexed": false,
          "name": "_evidenceGroupID",
          "type": "uint256"
        }
      ],
      "name": "Dispute",
      "type": "event"
    },
    {
      "anonymous": false,
      "inputs": [
        {
          "indexed": true,
          "name": "_arbitrator",
          "type": "address"
        },
        {
          "indexed": true,
          "name": "_evidenceGroupID",
          "type": "uint256"
        },
        {
          "indexed": true,
          "name": "_party",
          "type": "address"
        },
        {
          "indexed": false,
          "name": "_evidence",
          "type": "string"
        }
      ],
      "name": "Evidence",
      "type": "event"
    },
    {
      "anonymous": false,
      "inputs": [
        {
          "indexed": true,
          "name": "_arbitrator",
          "type": "address"
        },
        {
          "indexed": true,
          "name": "_disputeID",
          "type": "uint256"
        },
        {
          "indexed": false,
          "name": "_ruling",
          "type": "uint256"
        }
      ],
      "name": "Ruling",
      "type": "event"
    },
    {
      "constant": false,
      "inputs": [
        {
          "name": "_metaEvidence",
          "type": "string"
        }
      ],
      "name": "setMetaEvidence",
      "outputs": [],
      "payable": false,
      "stateMutability": "nonpayable",
      "type": "function"
    },
    {
      "constant": false,
      "inputs": [
        {
          "name": "_questionID",
          "type": "bytes32"
        },
        {
          "name": "_maxPrevious",
          "type": "uint256"
        }
      ],
      "name": "requestArbitration",
      "outputs": [],
      "payable": true,
      "stateMutability": "payable",
      "type": "function"
    },
    {
      "constant": false,
      "inputs": [
        {
          "name": "_questionID",
          "type": "bytes32"
        },
        {
          "name": "_lastHistoryHash",
          "type": "bytes32"
        },
        {
          "name": "_lastAnswerOrCommitmentID",
          "type": "bytes32"
        },
        {
          "name": "_lastBond",
          "type": "uint256"
        },
        {
          "name": "_lastAnswerer",
          "type": "address"
        },
        {
          "name": "_isCommitment",
          "type": "bool"
        }
      ],
      "name": "reportAnswer",
      "outputs": [],
      "payable": false,
      "stateMutability": "nonpayable",
      "type": "function"
    },
    {
      "constant": true,
      "inputs": [
        {
          "name": "_questionID",
          "type": "bytes32"
        }
      ],
      "name": "getDisputeFee",
      "outputs": [
        {
          "name": "fee",
          "type": "uint256"
        }
      ],
      "payable": false,
      "stateMutability": "view",
      "type": "function"
    }
  ],
  "bytecode": "0x608060405234801561001057600080fd5b50604051620011fa380380620011fa83398101604090815281516020808401519284015160008054600160a060020a031916600160a060020a03851617905592909301805191939092918491849161006e91600191908401906100a8565b50506002805433600160a060020a03199182161790915560038054909116600160a060020a03939093169290921790915550610143915050565b828054600181600116156101000203166002900490600052602060002090601f016020900481019282601f106100e957805160ff1916838001178555610116565b82800160010185558215610116579182015b828111156101165782518255916020019190600101906100fb565b50610122929150610126565b5090565b61014091905b80821115610122576000815560010161012c565b90565b6110a780620001536000396000f3006080604052600436106100cf5763ffffffff7c010000000000000000000000000000000000000000000000000000000060003504166302c891c581146100d45780630c7ac7b6146100f65780630fa8c7ce146101805780632c6bb044146101a7578063311a6c56146101e85780633f37773f146102035780636cc6cde114610242578063888dcad314610257578063a22352e21461026f578063a829c3d114610287578063bc8802a214610295578063cc3ea6fa146102aa578063d521aa9f146102d6578063d5f39488146102ee575b600080fd5b3480156100e057600080fd5b506100f46004803560248101910135610303565b005b34801561010257600080fd5b5061010b610423565b6040805160208082528351818301528351919283929083019185019080838360005b8381101561014557818101518382015260200161012d565b50505050905090810190601f1680156101725780820380516001836020036101000a031916815260200191505b509250505060405180910390f35b34801561018c57600080fd5b506101956104b0565b60408051918252519081900360200190f35b3480156101b357600080fd5b506101bf6004356104b6565b6040805173ffffffffffffffffffffffffffffffffffffffff9092168252519081900360200190f35b3480156101f457600080fd5b506100f46004356024356104de565b34801561020f57600080fd5b506100f460043560243560443560643573ffffffffffffffffffffffffffffffffffffffff6084351660a43515156105cf565b34801561024e57600080fd5b506101bf6109e4565b34801561026357600080fd5b50610195600435610a00565b34801561027b57600080fd5b50610195600435610a12565b6100f4600435602435610b2d565b3480156102a157600080fd5b506101bf610db5565b3480156102b657600080fd5b506102c2600435610dd1565b604080519115158252519081900360200190f35b3480156102e257600080fd5b50610195600435610de6565b3480156102fa57600080fd5b506101bf610df8565b60025473ffffffffffffffffffffffffffffffffffffffff1633146103af57604080517f08c379a000000000000000000000000000000000000000000000000000000000815260206004820152603860248201527f43616e206f6e6c792062652063616c6c6564206f6e636520627920746865206460448201527f65706c6f796572206f662074686520636f6e74726163742e0000000000000000606482015290519081900360840190fd5b6002805473ffffffffffffffffffffffffffffffffffffffff1916905560408051602080825281018390526000917f61606860eb6c87306811e2695215385101daab53bd6ab4e9f9049aead9363c7d9185918591908190810184848082843760405192018290039550909350505050a25050565b60018054604080516020600284861615610100026000190190941693909304601f810184900484028201840190925281815292918301828280156104a85780601f1061047d576101008083540402835291602001916104a8565b820191906000526020600020905b81548152906001019060200180831161048b57829003601f168201915b505050505081565b60011981565b60056020526000908152604090205473ffffffffffffffffffffffffffffffffffffffff1681565b60005473ffffffffffffffffffffffffffffffffffffffff16331461058a57604080517f08c379a000000000000000000000000000000000000000000000000000000000815260206004820152602560248201527f43616e206f6e6c792062652063616c6c6564206279207468652061726269747260448201527f61746f722e000000000000000000000000000000000000000000000000000000606482015290519081900360840190fd5b604080518281529051839133917f394027a5fa6e098a1191094d1719d6929b9abc535fcc0c8f448d6a4e756222769181900360200190a36105cb8282610e14565b5050565b604080516020808201889052818301879052606082018690526c0100000000000000000000000073ffffffffffffffffffffffffffffffffffffffff86160260808301527f010000000000000000000000000000000000000000000000000000000000000084151502609483015282516075818403018152609590920192839052815191929182918401908083835b6020831061067d5780518252601f19909201916020918201910161065e565b51815160209384036101000a6000190180199092169116179052604080519290940182900382206003547f82ffa9f7000000000000000000000000000000000000000000000000000000008452600484018e9052945190965073ffffffffffffffffffffffffffffffffffffffff90941694506382ffa9f7936024808401945091929091908290030181600087803b15801561071857600080fd5b505af115801561072c573d6000803e3d6000fd5b505050506040513d602081101561074257600080fd5b50511461082257604080517f08c379a000000000000000000000000000000000000000000000000000000000815260206004820152606360248201527f5468652068617368206f662074686520686973746f727920706172616d65746560448201527f727320737570706c69656420646f6573206e6f74206d6174636820746865206f60648201527f6e652073746f72656420696e20746865205265616c6974696f20636f6e74726160848201527f63742e000000000000000000000000000000000000000000000000000000000060a482015290519081900360c40190fd5b60008681526007602052604090205460ff1615156108c757604080517f08c379a000000000000000000000000000000000000000000000000000000000815260206004820152602160248201527f5468652061726269747261746f7220686173206e6f742072756c65642079657460448201527f2e00000000000000000000000000000000000000000000000000000000000000606482015290519081900360840190fd5b60035460008781526006602052604090205473ffffffffffffffffffffffffffffffffffffffff9091169063fe92049d9088906109078289898989610e69565b604080517c010000000000000000000000000000000000000000000000000000000063ffffffff87160281526004810194909452602484019290925273ffffffffffffffffffffffffffffffffffffffff16604483015251606480830192600092919082900301818387803b15801561097f57600080fd5b505af1158015610993573d6000803e3d6000fd5b50505060009687525050600560209081526040808720805473ffffffffffffffffffffffffffffffffffffffff19169055600682528087208790556007909152909420805460ff1916905550505050565b60005473ffffffffffffffffffffffffffffffffffffffff1681565b60066020526000908152604090205481565b600080546040517ff7434ea9000000000000000000000000000000000000000000000000000000008152602060048201908152600180546002600019828416156101000201909116046024840181905273ffffffffffffffffffffffffffffffffffffffff9094169363f7434ea993919291829160449091019084908015610adb5780601f10610ab057610100808354040283529160200191610adb565b820191906000526020600020905b815481529060010190602001808311610abe57829003601f168201915b505092505050602060405180830381600087803b158015610afb57600080fd5b505af1158015610b0f573d6000803e3d6000fd5b505050506040513d6020811015610b2557600080fd5b505192915050565b60008054604080517fc13517e10000000000000000000000000000000000000000000000000000000081526001196004820181815260248301938452600180546002600019828416156101000201909116046044850181905273ffffffffffffffffffffffffffffffffffffffff9096169563c13517e1953495929392909160649091019084908015610c015780601f10610bd657610100808354040283529160200191610c01565b820191906000526020600020905b815481529060010190602001808311610be457829003601f168201915b505093505050506020604051808303818588803b158015610c2157600080fd5b505af1158015610c35573d6000803e3d6000fd5b50505050506040513d6020811015610c4c57600080fd5b505160008181526004602081815260408084208890558784526005909152808320805473ffffffffffffffffffffffffffffffffffffffff19163390811790915560035482517ff6a94ecb000000000000000000000000000000000000000000000000000000008152938401899052602484019190915260448301879052905193945073ffffffffffffffffffffffffffffffffffffffff169263f6a94ecb9260648084019391929182900301818387803b158015610d0a57600080fd5b505af1158015610d1e573d6000803e3d6000fd5b505060008054604080518381526020810193909352805186955073ffffffffffffffffffffffffffffffffffffffff90921693507f74baab670a4015ab2f1b467c5252a96141a2573f2908e58a92081e80d3cfde3d928290030190a360408051848152905182917fcbb827f06aed2dd1e157f8e6b29f32604bc4e88360964014c4d4ad259f8d3fa8919081900360200190a2505050565b60035473ffffffffffffffffffffffffffffffffffffffff1681565b60076020526000908152604090205460ff1681565b60046020526000908152604090205481565b60025473ffffffffffffffffffffffffffffffffffffffff1681565b8015610e235760018103610e27565b6000195b600083815260046020818152604080842080548552600683528185209590955584548452600782528320805460ff191660011790559482529093529190915550565b60008080808080881515610e805760009350611022565b861561101a57600354604080517f839df945000000000000000000000000000000000000000000000000000000008152600481018d9052905173ffffffffffffffffffffffffffffffffffffffff9092169163839df945916024808201926060929091908290030181600087803b158015610efa57600080fd5b505af1158015610f0e573d6000803e3d6000fd5b505050506040513d6060811015610f2457600080fd5b508051602082015160409092015190945090925090508115610f4c5780945060019350611015565b63ffffffff428116908416111561101057604080517f08c379a000000000000000000000000000000000000000000000000000000000815260206004820152605960248201527f4172626974726174696f6e2063616e6e6f7420626520646f6e6520756e74696c60448201527f20746865206c61737420616e73776572657220686173206861642074696d652060648201527f746f2072657665616c2069747320636f6d6d69746d656e742e00000000000000608482015290519081900360a40190fd5b600093505b611022565b899450600193505b83801561103c575060008b81526006602052604090205485145b61106a5760008b81526005602052604090205473ffffffffffffffffffffffffffffffffffffffff1661106c565b875b9b9a50505050505050505050505600a165627a7a723058205986a50a3c0144dd019fb351ebb9b8980f6fa53c87758ec6501221794482da990029",
  "source": "/**\n *  https://contributing.kleros.io/smart-contract-workflow\n *  @reviewers: [@clesaege, @unknownunknown1]\n *  @auditors: [@remedcu]\n *  @bounties: [{ duration: 128 days, link: https://github.com/kleros/kleros-interaction/issues/244, maxPayout: 50 ETH }]\n *  @deployments: [ https://etherscan.io/address/0xd47f72a2d1d0e91b0ec5e5f5d02b2dc26d00a14d ]\n *  @tools: [MythX]\n */\n\npragma solidity ^0.4.24;\n\nimport { Arbitrable, Arbitrator } from \"../arbitration/Arbitrable.sol\";\n\ninterface RealitioInterface {\n\n    /// @notice Notify the contract that the arbitrator has been paid for a question, freezing it pending their decision.\n    /// @dev The arbitrator contract is trusted to only call this if they've been paid, and tell us who paid them.\n    /// @param question_id The ID of the question.\n    /// @param requester The account that requested arbitration.\n    /// @param max_previous If specified, reverts if a bond higher than this was submitted after you sent your transaction.\n    function notifyOfArbitrationRequest(bytes32 question_id, address requester, uint256 max_previous) external;\n\n    /// @notice Submit the answer for a question, for use by the arbitrator.\n    /// @dev Doesn't require (or allow) a bond.\n    /// If the current final answer is correct, the account should be whoever submitted it.\n    /// If the current final answer is wrong, the account should be whoever paid for arbitration.\n    /// However, the answerer stipulations are not enforced by the contract.\n    /// @param question_id The ID of the question.\n    /// @param answer The answer, encoded into bytes32.\n    /// @param answerer The account credited with this answer for the purpose of bond claims.\n    function submitAnswerByArbitrator(bytes32 question_id, bytes32 answer, address answerer) external;\n\n    /// @notice Returns the history hash of the question.\n    /// @param question_id The ID of the question.\n    /// @dev Updated on each answer, then rewound as each is claimed.\n    function getHistoryHash(bytes32 question_id) external returns(bytes32);\n\n    /// @notice Returns the commitment info by its id.\n    /// @param commitment_id The ID of the commitment.\n    /// @return Time after which the committed answer can be revealed.\n    /// @return Whether the commitment has already been revealed or not.\n    /// @return The committed answer, encoded as bytes32.\n    function commitments(bytes32 commitment_id) external returns(uint32, bool, bytes32);\n}\n\n/**\n *  @title RealitioArbitratorProxy\n *  @author Enrique Piqueras - <enrique@kleros.io>\n *  @dev A Realitio arbitrator that is just a proxy for an ERC792 arbitrator.\n */\ncontract RealitioArbitratorProxy is Arbitrable {\n    /* Events */\n\n    /** @dev Emitted when arbitration is requested, to link dispute ID to question ID for UIs.\n     *  @param _disputeID The ID of the dispute in the ERC792 arbitrator.\n     *  @param _questionID The ID of the question.\n     */\n    event DisputeIDToQuestionID(uint indexed _disputeID, bytes32 _questionID);\n\n    /* Storage */\n\n    uint public constant NUMBER_OF_CHOICES_FOR_ARBITRATOR = (2 ** 256) - 2; // The number of choices for the ERC792 arbitrator.\n    address public deployer; // The address of the deployer of the contract.\n    RealitioInterface public realitio; // The address of the Realitio contract.\n    mapping(uint => bytes32) public disputeIDToQuestionID; // A mapping from disputes to questions.\n    mapping(bytes32 => address) public questionIDToDisputer; // A mapping from questions to the addresses that requested arbitration for them.\n    mapping(bytes32 => bytes32) public questionIDToAnswer; // A mapping from questions to the answers the arbitrator gave for them.\n    // A mapping from questions to bools that are true if the arbitrator has answered the question and false otherwise.\n    mapping(bytes32 => bool) public questionIDToRuled;\n\n    /* Constructor */\n\n    /** @dev Constructs the RealitioArbitratorProxy contract.\n     *  @param _arbitrator The address of the ERC792 arbitrator.\n     *  @param _arbitratorExtraData The extra data used to raise a dispute in the ERC792 arbitrator.\n     *  @param _realitio The address of the Realitio contract.\n     */\n    constructor(\n        Arbitrator _arbitrator,\n        bytes _arbitratorExtraData,\n        RealitioInterface _realitio\n    ) Arbitrable(_arbitrator, _arbitratorExtraData) public {\n        deployer = msg.sender;\n        realitio = _realitio;\n    }\n\n    /* External */\n\n    /** @dev Sets the meta evidence. Can only be called once.\n     *  @param _metaEvidence The URI of the meta evidence file.\n     */\n    function setMetaEvidence(string _metaEvidence) external {\n        require(msg.sender == deployer, \"Can only be called once by the deployer of the contract.\");\n        deployer = address(0);\n        emit MetaEvidence(0, _metaEvidence);\n    }\n\n    /** @dev Raise a dispute from a specified question. UNTRUSTED.\n     *  @param _questionID The ID of the question.\n     *  @param _maxPrevious If specified, reverts if a bond higher than this was submitted after you sent your transaction.\n     */\n    function requestArbitration(bytes32 _questionID, uint _maxPrevious) external payable {\n        uint disputeID = arbitrator.createDispute.value(msg.value)(NUMBER_OF_CHOICES_FOR_ARBITRATOR, arbitratorExtraData);\n        disputeIDToQuestionID[disputeID] = _questionID;\n        questionIDToDisputer[_questionID] = msg.sender;\n        realitio.notifyOfArbitrationRequest(_questionID, msg.sender, _maxPrevious);\n        emit Dispute(arbitrator, disputeID, 0, 0);\n        emit DisputeIDToQuestionID(disputeID, _questionID);\n    }\n\n    /** @dev Report the answer to a specified question from the ERC792 arbitrator to the Realitio contract. TRUSTED.\n     *  @param _questionID The ID of the question.\n     *  @param _lastHistoryHash The history hash given with the last answer to the question in the Realitio contract.\n     *  @param _lastAnswerOrCommitmentID The last answer given, or its commitment ID if it was a commitment, to the question in the Realitio contract.\n     *  @param _lastBond The bond paid for the last answer to the question in the Realitio contract.\n     *  @param _lastAnswerer The last answerer to the question in the Realitio contract.\n     *  @param _isCommitment Whether the last answer to the question in the Realitio contract used commit or reveal or not. True if it did, false otherwise.\n     */\n    function reportAnswer(\n        bytes32 _questionID,\n        bytes32 _lastHistoryHash,\n        bytes32 _lastAnswerOrCommitmentID,\n        uint _lastBond,\n        address _lastAnswerer,\n        bool _isCommitment\n    ) external {\n        require(\n            realitio.getHistoryHash(_questionID) == keccak256(abi.encodePacked(_lastHistoryHash, _lastAnswerOrCommitmentID, _lastBond, _lastAnswerer, _isCommitment)),\n            \"The hash of the history parameters supplied does not match the one stored in the Realitio contract.\"\n        );\n        require(questionIDToRuled[_questionID], \"The arbitrator has not ruled yet.\");\n\n        realitio.submitAnswerByArbitrator(\n            _questionID,\n            questionIDToAnswer[_questionID],\n            computeWinner(_questionID, _lastAnswerOrCommitmentID, _lastBond, _lastAnswerer, _isCommitment)\n        );\n\n        delete questionIDToDisputer[_questionID];\n        delete questionIDToAnswer[_questionID];\n        delete questionIDToRuled[_questionID];\n    }\n\n    /* External Views */\n\n    /** @dev Get the fee for a dispute from a specified question. UNTRUSTED.\n     *  @param _questionID The ID of the question.\n     *  @return fee The dispute's fee.\n     */\n    function getDisputeFee(bytes32 _questionID) external view returns (uint fee) {\n        return arbitrator.arbitrationCost(arbitratorExtraData);\n    }\n\n    /* Internal */\n\n    /** @dev Execute the ruling of a specified dispute.\n     *  @param _disputeID The ID of the dispute in the ERC792 arbitrator.\n     *  @param _ruling The ruling given by the ERC792 arbitrator. Note that 0 is reserved for \"Unable/refused to arbitrate\" and we map it to `bytes32(-1)` which has a similar connotation in Realitio.\n     */\n    function executeRuling(uint _disputeID, uint _ruling) internal {\n        questionIDToAnswer[disputeIDToQuestionID[_disputeID]] = bytes32(_ruling == 0 ? uint(-1) : _ruling - 1);\n        questionIDToRuled[disputeIDToQuestionID[_disputeID]] = true;\n        delete disputeIDToQuestionID[_disputeID];\n    }\n\n    /* Private Views */\n\n    /** @dev Computes the Realitio answerer, of a specified question, that should win. This function is needed to avoid the \"stack too deep error\". TRUSTED.\n     *  @param _questionID The ID of the question.\n     *  @param _lastAnswerOrCommitmentID The last answer given, or its commitment ID if it was a commitment, to the question in the Realitio contract.\n     *  @param _lastBond The bond paid for the last answer to the question in the Realitio contract.\n     *  @param _lastAnswerer The last answerer to the question in the Realitio contract.\n     *  @param _isCommitment Whether the last answer to the question in the Realitio contract used commit or reveal or not. True if it did, false otherwise.\n     *  @return winner The computed winner.\n     */\n    function computeWinner(\n        bytes32 _questionID,\n        bytes32 _lastAnswerOrCommitmentID,\n        uint _lastBond,\n        address _lastAnswerer,\n        bool _isCommitment\n    ) private view returns(address winner) {\n        bytes32 lastAnswer;\n        bool isAnswered;\n        if (_lastBond == 0) { // If the question hasn't been answered, nobody is ever right.\n            isAnswered = false;\n        } else if (_isCommitment) {\n            (uint32 revealTS, bool isRevealed, bytes32 revealedAnswer) = realitio.commitments(_lastAnswerOrCommitmentID);\n            if (isRevealed) {\n                lastAnswer = revealedAnswer;\n                isAnswered = true;\n            } else {\n                require(revealTS <= uint32(now), \"Arbitration cannot be done until the last answerer has had time to reveal its commitment.\");\n                isAnswered = false;\n            }\n        } else {\n            lastAnswer = _lastAnswerOrCommitmentID;\n            isAnswered = true;\n        }\n\n        return isAnswered && lastAnswer == questionIDToAnswer[_questionID] ? _lastAnswerer : questionIDToDisputer[_questionID];\n    }\n}\n",
  "sourcePath": "/Users/franespeche/kleros-eArt/e-art/front/src/kleros-interaction/contracts/standard/proxy/RealitioArbitratorProxy.sol",
  "compiler": {
    "name": "solc",
    "version": "0.4.25+commit.59dbf8f1.Emscripten.clang"
  },
  "schemaVersion": "3.3.4",
  "updatedAt": "2021-04-16T19:16:09.237Z",
  "devdoc": {
    "author": "Enrique Piqueras - <enrique@kleros.io>",
    "methods": {
      "getDisputeFee(bytes32)": {
        "details": "Get the fee for a dispute from a specified question. UNTRUSTED.",
        "params": {
          "_questionID": "The ID of the question."
        },
        "return": "fee The dispute's fee."
      },
      "reportAnswer(bytes32,bytes32,bytes32,uint256,address,bool)": {
        "details": "Report the answer to a specified question from the ERC792 arbitrator to the Realitio contract. TRUSTED.",
        "params": {
          "_isCommitment": "Whether the last answer to the question in the Realitio contract used commit or reveal or not. True if it did, false otherwise.",
          "_lastAnswerOrCommitmentID": "The last answer given, or its commitment ID if it was a commitment, to the question in the Realitio contract.",
          "_lastAnswerer": "The last answerer to the question in the Realitio contract.",
          "_lastBond": "The bond paid for the last answer to the question in the Realitio contract.",
          "_lastHistoryHash": "The history hash given with the last answer to the question in the Realitio contract.",
          "_questionID": "The ID of the question."
        }
      },
      "requestArbitration(bytes32,uint256)": {
        "details": "Raise a dispute from a specified question. UNTRUSTED.",
        "params": {
          "_maxPrevious": "If specified, reverts if a bond higher than this was submitted after you sent your transaction.",
          "_questionID": "The ID of the question."
        }
      },
      "rule(uint256,uint256)": {
        "details": "Give a ruling for a dispute. Must be called by the arbitrator. The purpose of this function is to ensure that the address calling it has the right to rule on the contract.",
        "params": {
          "_disputeID": "ID of the dispute in the Arbitrator contract.",
          "_ruling": "Ruling given by the arbitrator. Note that 0 is reserved for \"Not able/wanting to make a decision\"."
        }
      },
      "setMetaEvidence(string)": {
        "details": "Sets the meta evidence. Can only be called once.",
        "params": {
          "_metaEvidence": "The URI of the meta evidence file."
        }
      }
    },
    "title": "RealitioArbitratorProxy"
  },
  "userdoc": {
    "methods": {}
  }
}