{
  "contractName": "VersioningProxy",
  "abi": [
    {
      "constant": true,
      "inputs": [
        {
          "name": "",
          "type": "uint256"
        }
      ],
      "name": "tags",
      "outputs": [
        {
          "name": "",
          "type": "bytes32"
        }
      ],
      "payable": false,
      "stateMutability": "view",
      "type": "function"
    },
    {
      "constant": true,
      "inputs": [],
      "name": "stable",
      "outputs": [
        {
          "name": "tag",
          "type": "bytes32"
        },
        {
          "name": "_address",
          "type": "address"
        }
      ],
      "payable": false,
      "stateMutability": "view",
      "type": "function"
    },
    {
      "constant": true,
      "inputs": [],
      "name": "implementation",
      "outputs": [
        {
          "name": "",
          "type": "address"
        }
      ],
      "payable": false,
      "stateMutability": "view",
      "type": "function"
    },
    {
      "constant": true,
      "inputs": [
        {
          "name": "",
          "type": "bytes32"
        }
      ],
      "name": "addresses",
      "outputs": [
        {
          "name": "",
          "type": "address"
        }
      ],
      "payable": false,
      "stateMutability": "view",
      "type": "function"
    },
    {
      "constant": true,
      "inputs": [],
      "name": "owner",
      "outputs": [
        {
          "name": "",
          "type": "address"
        }
      ],
      "payable": false,
      "stateMutability": "view",
      "type": "function"
    },
    {
      "inputs": [
        {
          "name": "_firstTag",
          "type": "bytes32"
        },
        {
          "name": "_firstAddress",
          "type": "address"
        }
      ],
      "payable": false,
      "stateMutability": "nonpayable",
      "type": "constructor"
    },
    {
      "anonymous": false,
      "inputs": [
        {
          "indexed": false,
          "name": "_prevTag",
          "type": "bytes32"
        },
        {
          "indexed": false,
          "name": "_prevAddress",
          "type": "address"
        },
        {
          "indexed": false,
          "name": "_nextTag",
          "type": "bytes32"
        },
        {
          "indexed": false,
          "name": "_nextAddress",
          "type": "address"
        }
      ],
      "name": "OnStableChange",
      "type": "event"
    },
    {
      "constant": false,
      "inputs": [],
      "name": "rollback",
      "outputs": [
        {
          "name": "_success",
          "type": "bool"
        }
      ],
      "payable": false,
      "stateMutability": "nonpayable",
      "type": "function"
    },
    {
      "constant": true,
      "inputs": [],
      "name": "allTags",
      "outputs": [
        {
          "name": "_tags",
          "type": "bytes32[]"
        }
      ],
      "payable": false,
      "stateMutability": "view",
      "type": "function"
    },
    {
      "constant": false,
      "inputs": [
        {
          "name": "_nextTag",
          "type": "bytes32"
        },
        {
          "name": "_nextAddress",
          "type": "address"
        }
      ],
      "name": "publish",
      "outputs": [],
      "payable": false,
      "stateMutability": "nonpayable",
      "type": "function"
    },
    {
      "constant": false,
      "inputs": [
        {
          "name": "_nextTag",
          "type": "bytes32"
        }
      ],
      "name": "setStable",
      "outputs": [],
      "payable": false,
      "stateMutability": "nonpayable",
      "type": "function"
    }
  ],
  "bytecode": "0x608060405260008054600160a060020a0319163317905534801561002257600080fd5b50604051604080610af383398101604052805160209091015160018054600160a060020a031916600160a060020a0383161790556100698282640100000000610070810204565b505061032e565b600054600160a060020a031633146100d757604080517f08c379a00000000000000000000000000000000000000000000000000000000081526020600482018190526024820152600080516020610ad3833981519152604482015290519081900360640190fd5b60028054600181019091557f405787fa12a823e0f2b7631cc41b3ba8828b3321ca811111fa75cd3aa3bb5ace0182905560008281526003602052604090208054600160a060020a031916600160a060020a03831617905561014082640100000000610144810204565b5050565b6000805481908190600160a060020a031633146101b057604080517f08c379a00000000000000000000000000000000000000000000000000000000081526020600482018190526024820152600080516020610ad3833981519152604482015290519081900360640190fd5b600084815260036020526040902054600160a060020a0316925082151561025e57604080517f08c379a000000000000000000000000000000000000000000000000000000000815260206004820152602c60248201527f546865206e65787420616464726573732063616e6e6f7420626520746865207a60448201527f65726f20616464726573732e0000000000000000000000000000000000000000606482015290519081900360840190fd5b5050600480546005805460408051808201909152868152600160a060020a03868116602090920182905294879055600160a060020a03198216179091559091166102b382828686640100000000610328810204565b60408051838152600160a060020a0380841660208301528183018790528516606082015290517f4f08c95ff89163f080e17ce39ace3dcf153ad5485ff5cd5657bddbc22f116e119181900360800190a1505060018054600160a060020a031916600160a060020a039290921691909117905550565b50505050565b6107968061033d6000396000f3006080604052600436106100985763ffffffff7c010000000000000000000000000000000000000000000000000000000060003504166320822abc811461009d57806322be3de1146100c75780635c60da1b1461010a5780636824898314610148578063699f200f1461017b5780638da5cb5b146101935780639afd9d78146101a8578063d646fa4b146101d1578063e675be40146101e9575b600080fd5b3480156100a957600080fd5b506100b560043561024e565b60408051918252519081900360200190f35b3480156100d357600080fd5b506100dc61026d565b6040805192835273ffffffffffffffffffffffffffffffffffffffff90911660208301528051918290030190f35b34801561011657600080fd5b5061011f61028c565b6040805173ffffffffffffffffffffffffffffffffffffffff9092168252519081900360200190f35b34801561015457600080fd5b5061017960043573ffffffffffffffffffffffffffffffffffffffff602435166102a8565b005b34801561018757600080fd5b5061011f6004356103ac565b34801561019f57600080fd5b5061011f6103d4565b3480156101b457600080fd5b506101bd6103f0565b604080519115158252519081900360200190f35b3480156101dd57600080fd5b506101796004356104c3565b3480156101f557600080fd5b506101fe61070b565b60408051602080825283518183015283519192839290830191858101910280838360005b8381101561023a578181015183820152602001610222565b505050509050019250505060405180910390f35b600280548290811061025c57fe5b600091825260209091200154905081565b60045460055473ffffffffffffffffffffffffffffffffffffffff1682565b60015473ffffffffffffffffffffffffffffffffffffffff1681565b60005473ffffffffffffffffffffffffffffffffffffffff16331461032e57604080517f08c379a000000000000000000000000000000000000000000000000000000000815260206004820181905260248201527f43616e206f6e6c792062652063616c6c656420627920746865206f776e65722e604482015290519081900360640190fd5b60028054600181019091557f405787fa12a823e0f2b7631cc41b3ba8828b3321ca811111fa75cd3aa3bb5ace018290556000828152600360205260409020805473ffffffffffffffffffffffffffffffffffffffff191673ffffffffffffffffffffffffffffffffffffffff83161790556103a8826104c3565b5050565b60036020526000908152604090205473ffffffffffffffffffffffffffffffffffffffff1681565b60005473ffffffffffffffffffffffffffffffffffffffff1681565b600080548190819073ffffffffffffffffffffffffffffffffffffffff16331461047b57604080517f08c379a000000000000000000000000000000000000000000000000000000000815260206004820181905260248201527f43616e206f6e6c792062652063616c6c656420627920746865206f776e65722e604482015290519081900360640190fd5b60028054925082101561049157600092506104be565b6002805460011984019081106104a357fe5b906000526020600020015490506104b9816104c3565b600192505b505090565b600080548190819073ffffffffffffffffffffffffffffffffffffffff16331461054e57604080517f08c379a000000000000000000000000000000000000000000000000000000000815260206004820181905260248201527f43616e206f6e6c792062652063616c6c656420627920746865206f776e65722e604482015290519081900360640190fd5b60008481526003602052604090205473ffffffffffffffffffffffffffffffffffffffff16925082151561060957604080517f08c379a000000000000000000000000000000000000000000000000000000000815260206004820152602c60248201527f546865206e65787420616464726573732063616e6e6f7420626520746865207a60448201527f65726f20616464726573732e0000000000000000000000000000000000000000606482015290519081900360840190fd5b505060048054600580546040805180820190915286815273ffffffffffffffffffffffffffffffffffffffff86811660209092018290529487905573ffffffffffffffffffffffffffffffffffffffff1982161790915590911661066f82828686610764565b6040805183815273ffffffffffffffffffffffffffffffffffffffff80841660208301528183018790528516606082015290517f4f08c95ff89163f080e17ce39ace3dcf153ad5485ff5cd5657bddbc22f116e119181900360800190a150506001805473ffffffffffffffffffffffffffffffffffffffff191673ffffffffffffffffffffffffffffffffffffffff9290921691909117905550565b6060600280548060200260200160405190810160405280929190818152602001828054801561075a57602002820191906000526020600020905b81548152600190910190602001808311610745575b5050505050905090565b505050505600a165627a7a7230582059a9747b871bcaa9a80bf03b655a37602e47302a7db44ce4814a2750cb95bd59002943616e206f6e6c792062652063616c6c656420627920746865206f776e65722e",
  "source": "pragma solidity ^0.4.15;\n\n/**\n *  @title VersioningProxy\n *  @author Enrique Piqueras - <epiquerass@gmail.com>\n *  @notice A base contract for managing the deployment of versions of another contract, the managed contract.\n */\ncontract VersioningProxy {\n    /* Structs */\n\n    struct Deployment {\n        bytes32 tag;\n        address _address;\n    }\n\n    /* Events */\n\n    /**\n     * @notice Called whenever 'stable' changes for off-chain handling.\n     * @param _prevTag The previous 'stable' managed contract version tag.\n     * @param _prevAddress The previous 'stable' managed contract address.\n     * @param _nextTag The next 'stable' managed contract version tag.\n     * @param _nextAddress The next 'stable' managed contract address.\n     */\n    event OnStableChange(bytes32 _prevTag, address _prevAddress, bytes32 _nextTag, address _nextAddress);\n\n    /* Storage */\n\n    // Owner and Creation Metadata\n    address public owner = msg.sender;\n\n    // Deployments\n    address public implementation; // Proxy standard target address\n    bytes32[] public tags; // We keep this so we can iterate over versions\n    mapping (bytes32 => address) public addresses;\n    Deployment public stable;\n\n    /* Modifiers */\n\n    /**\n     *  @dev Makes a function only callable by the owner of this contract.\n     */\n    modifier onlyOwner {\n        require(owner == msg.sender, \"Can only be called by the owner.\");\n        _;\n    }\n\n    /* Constructor */\n\n    /**\n     *  @notice Constructs the versioning proxy with the proxy eternal storage flag and the first version of the managed contract, `firstTag`, at `firstAddress`.\n     *  @param _firstTag The version tag of the first version of the managed contract.\n     *  @param _firstAddress The address of the first verion of the managed contract.\n     */\n    constructor(bytes32 _firstTag, address _firstAddress) public {\n        implementation = _firstAddress;\n        publish(_firstTag, _firstAddress);\n    }\n\n    /* External */\n\n    /**\n     * @notice Rolls back 'stable' to the previous deployment, and returns true, if one exists, returns false otherwise.\n     * @return True if there was a previous version and the rollback succeeded, false otherwise.\n     */\n    function rollback() external onlyOwner returns(bool _success) {\n        uint256 tagsLen = tags.length;\n        if (tagsLen < 2) // We don't have a previous deployment, return false\n            return false;\n\n        // Roll back and return true\n        bytes32 prevTag = tags[tagsLen - 2];\n        setStable(prevTag);\n        return true;\n    }\n\n    /* External Views */\n\n    /**\n     * @notice Returns all deployed version tags.\n     * @return All of the deployed version tags.\n     */\n    function allTags() external view returns(bytes32[] _tags) {\n        return tags;\n    }\n\n    /* Public */\n\n    /**\n     *  @notice Publishes the next version of the managed contract, `nextTag`, at `nextAddress`.\n     *  @param _nextTag The next version tag.\n     *  @param _nextAddress The next address of the managed contract.\n     */\n    function publish(bytes32 _nextTag, address _nextAddress) public onlyOwner {\n        // Publish\n        tags.push(_nextTag); // Push next tag\n        addresses[_nextTag] = _nextAddress; // Set next address\n\n        // Set 'stable'\n        setStable(_nextTag);\n    }\n\n    /**\n     *  @notice Sets the value of 'stable' to the address of `nextTag`.\n     *  @param _nextTag The already published version tag.\n     */\n    function setStable(bytes32 _nextTag) public onlyOwner {\n        // Make sure this version has already been published\n        address nextAddress = addresses[_nextTag];\n        require(nextAddress != address(0), \"The next address cannot be the zero address.\");\n\n        // Save current tag and address for handlers\n        bytes32 prevTag = stable.tag;\n        address prevAddress = stable._address;\n\n        // Set 'stable'\n        stable = Deployment({tag: _nextTag, _address: nextAddress});\n\n        // Call handler and fire event\n        handleStableChange(prevTag, prevAddress, _nextTag, nextAddress); // on-chain\n        emit OnStableChange(prevTag, prevAddress, _nextTag, nextAddress); // off-chain\n\n        // Change proxy target\n        implementation = nextAddress;\n    }\n\n    /* Private */\n\n    /**\n     * @notice Called whenever 'stable' changes for on-chain handling.\n     * @dev Overwrite this function to handle 'stable' changes on-chain.\n     * @param _prevTag The previous 'stable' managed contract version tag.\n     * @param _prevAddress The previous 'stable' managed contract address.\n     * @param _nextTag The next 'stable' managed contract version tag.\n     * @param _nextAddress The next 'stable' managed contract address.\n     */\n    function handleStableChange(bytes32 _prevTag, address _prevAddress, bytes32 _nextTag, address _nextAddress) private {}\n}\n",
  "sourcePath": "/Users/franespeche/kleros-eArt/e-art/front/src/kleros-interaction/contracts/standard/proxy/VersioningProxy.sol",
  "compiler": {
    "name": "solc",
    "version": "0.4.25+commit.59dbf8f1.Emscripten.clang"
  },
  "schemaVersion": "3.3.4",
  "updatedAt": "2021-04-16T19:16:09.250Z",
  "devdoc": {
    "author": "Enrique Piqueras - <epiquerass@gmail.com>",
    "methods": {
      "allTags()": {
        "return": "All of the deployed version tags."
      },
      "publish(bytes32,address)": {
        "params": {
          "_nextAddress": "The next address of the managed contract.",
          "_nextTag": "The next version tag."
        }
      },
      "rollback()": {
        "return": "True if there was a previous version and the rollback succeeded, false otherwise."
      },
      "setStable(bytes32)": {
        "params": {
          "_nextTag": "The already published version tag."
        }
      }
    },
    "title": "VersioningProxy"
  },
  "userdoc": {
    "methods": {
      "allTags()": {
        "notice": "Returns all deployed version tags."
      },
      "publish(bytes32,address)": {
        "notice": "Publishes the next version of the managed contract, `nextTag`, at `nextAddress`."
      },
      "rollback()": {
        "notice": "Rolls back 'stable' to the previous deployment, and returns true, if one exists, returns false otherwise."
      },
      "setStable(bytes32)": {
        "notice": "Sets the value of 'stable' to the address of `nextTag`."
      }
    }
  }
}